{
  "contractName": "EthStore",
  "abi": [
    {
      "constant": true,
      "inputs": [
        {
          "name": "",
          "type": "uint256"
        },
        {
          "name": "",
          "type": "uint256"
        }
      ],
      "name": "storeIdToProductIds",
      "outputs": [
        {
          "name": "",
          "type": "uint256"
        }
      ],
      "payable": false,
      "stateMutability": "view",
      "type": "function"
    },
    {
      "constant": false,
      "inputs": [
        {
          "name": "_productId",
          "type": "uint256"
        },
        {
          "name": "_enabled",
          "type": "bool"
        }
      ],
      "name": "enableProduct",
      "outputs": [],
      "payable": false,
      "stateMutability": "nonpayable",
      "type": "function"
    },
    {
      "constant": true,
      "inputs": [
        {
          "name": "",
          "type": "address"
        }
      ],
      "name": "addressToBalance",
      "outputs": [
        {
          "name": "",
          "type": "uint256"
        }
      ],
      "payable": false,
      "stateMutability": "view",
      "type": "function"
    },
    {
      "constant": true,
      "inputs": [],
      "name": "getIdentity",
      "outputs": [
        {
          "name": "isAdministrator",
          "type": "bool"
        },
        {
          "name": "isStoreOwner",
          "type": "bool"
        }
      ],
      "payable": false,
      "stateMutability": "view",
      "type": "function"
    },
    {
      "constant": false,
      "inputs": [
        {
          "name": "_productId",
          "type": "uint256"
        }
      ],
      "name": "purchaseProduct",
      "outputs": [],
      "payable": true,
      "stateMutability": "payable",
      "type": "function"
    },
    {
      "constant": false,
      "inputs": [],
      "name": "unpause",
      "outputs": [],
      "payable": false,
      "stateMutability": "nonpayable",
      "type": "function"
    },
    {
      "constant": false,
      "inputs": [],
      "name": "createSampleStore2",
      "outputs": [],
      "payable": false,
      "stateMutability": "nonpayable",
      "type": "function"
    },
    {
      "constant": false,
      "inputs": [
        {
          "name": "_name",
          "type": "string"
        },
        {
          "name": "_description",
          "type": "string"
        },
        {
          "name": "_imageUrl",
          "type": "string"
        },
        {
          "name": "_price",
          "type": "uint256"
        },
        {
          "name": "_count",
          "type": "uint256"
        }
      ],
      "name": "addProduct",
      "outputs": [],
      "payable": false,
      "stateMutability": "nonpayable",
      "type": "function"
    },
    {
      "constant": true,
      "inputs": [],
      "name": "paused",
      "outputs": [
        {
          "name": "",
          "type": "bool"
        }
      ],
      "payable": false,
      "stateMutability": "view",
      "type": "function"
    },
    {
      "constant": false,
      "inputs": [],
      "name": "withdrawBalance",
      "outputs": [],
      "payable": false,
      "stateMutability": "nonpayable",
      "type": "function"
    },
    {
      "constant": false,
      "inputs": [
        {
          "name": "_storeId",
          "type": "uint256"
        },
        {
          "name": "_enabled",
          "type": "bool"
        }
      ],
      "name": "enableStore",
      "outputs": [],
      "payable": false,
      "stateMutability": "nonpayable",
      "type": "function"
    },
    {
      "constant": false,
      "inputs": [],
      "name": "renounceOwnership",
      "outputs": [],
      "payable": false,
      "stateMutability": "nonpayable",
      "type": "function"
    },
    {
      "constant": true,
      "inputs": [
        {
          "name": "",
          "type": "uint256"
        }
      ],
      "name": "products",
      "outputs": [
        {
          "name": "id",
          "type": "uint256"
        },
        {
          "name": "storeId",
          "type": "uint256"
        },
        {
          "name": "price",
          "type": "uint256"
        },
        {
          "name": "count",
          "type": "uint256"
        },
        {
          "name": "enabled",
          "type": "bool"
        },
        {
          "name": "name",
          "type": "string"
        },
        {
          "name": "description",
          "type": "string"
        },
        {
          "name": "imageUrl",
          "type": "string"
        }
      ],
      "payable": false,
      "stateMutability": "view",
      "type": "function"
    },
    {
      "constant": false,
      "inputs": [],
      "name": "pause",
      "outputs": [],
      "payable": false,
      "stateMutability": "nonpayable",
      "type": "function"
    },
    {
      "constant": false,
      "inputs": [
        {
          "name": "_productId",
          "type": "uint256"
        },
        {
          "name": "_name",
          "type": "string"
        },
        {
          "name": "_description",
          "type": "string"
        },
        {
          "name": "_imageUrl",
          "type": "string"
        },
        {
          "name": "_price",
          "type": "uint256"
        },
        {
          "name": "_count",
          "type": "uint256"
        }
      ],
      "name": "editProduct",
      "outputs": [],
      "payable": false,
      "stateMutability": "nonpayable",
      "type": "function"
    },
    {
      "constant": true,
      "inputs": [],
      "name": "owner",
      "outputs": [
        {
          "name": "",
          "type": "address"
        }
      ],
      "payable": false,
      "stateMutability": "view",
      "type": "function"
    },
    {
      "constant": true,
      "inputs": [
        {
          "name": "",
          "type": "uint256"
        }
      ],
      "name": "transactions",
      "outputs": [
        {
          "name": "id",
          "type": "uint256"
        },
        {
          "name": "storeId",
          "type": "uint256"
        },
        {
          "name": "productId",
          "type": "uint256"
        },
        {
          "name": "price",
          "type": "uint256"
        },
        {
          "name": "buyer",
          "type": "address"
        }
      ],
      "payable": false,
      "stateMutability": "view",
      "type": "function"
    },
    {
      "constant": true,
      "inputs": [],
      "name": "storeCount",
      "outputs": [
        {
          "name": "",
          "type": "uint256"
        }
      ],
      "payable": false,
      "stateMutability": "view",
      "type": "function"
    },
    {
      "constant": true,
      "inputs": [
        {
          "name": "",
          "type": "address"
        }
      ],
      "name": "storeOwnerToStoreId",
      "outputs": [
        {
          "name": "",
          "type": "uint256"
        }
      ],
      "payable": false,
      "stateMutability": "view",
      "type": "function"
    },
    {
      "constant": true,
      "inputs": [],
      "name": "transactionCount",
      "outputs": [
        {
          "name": "",
          "type": "uint256"
        }
      ],
      "payable": false,
      "stateMutability": "view",
      "type": "function"
    },
    {
      "constant": false,
      "inputs": [
        {
          "name": "_name",
          "type": "string"
        },
        {
          "name": "_description",
          "type": "string"
        },
        {
          "name": "_imageUrl",
          "type": "string"
        }
      ],
      "name": "editStore",
      "outputs": [],
      "payable": false,
      "stateMutability": "nonpayable",
      "type": "function"
    },
    {
      "constant": false,
      "inputs": [],
      "name": "createSampleStore1",
      "outputs": [],
      "payable": false,
      "stateMutability": "nonpayable",
      "type": "function"
    },
    {
      "constant": true,
      "inputs": [],
      "name": "productCount",
      "outputs": [
        {
          "name": "",
          "type": "uint256"
        }
      ],
      "payable": false,
      "stateMutability": "view",
      "type": "function"
    },
    {
      "constant": true,
      "inputs": [
        {
          "name": "",
          "type": "uint256"
        }
      ],
      "name": "stores",
      "outputs": [
        {
          "name": "id",
          "type": "uint256"
        },
        {
          "name": "storeOwner",
          "type": "address"
        },
        {
          "name": "enabled",
          "type": "bool"
        },
        {
          "name": "name",
          "type": "string"
        },
        {
          "name": "description",
          "type": "string"
        },
        {
          "name": "imageUrl",
          "type": "string"
        },
        {
          "name": "productCount",
          "type": "uint256"
        }
      ],
      "payable": false,
      "stateMutability": "view",
      "type": "function"
    },
    {
      "constant": false,
      "inputs": [
        {
          "name": "_newOwner",
          "type": "address"
        }
      ],
      "name": "transferOwnership",
      "outputs": [],
      "payable": false,
      "stateMutability": "nonpayable",
      "type": "function"
    },
    {
      "constant": false,
      "inputs": [
        {
          "name": "_storeOwner",
          "type": "address"
        }
      ],
      "name": "createStore",
      "outputs": [],
      "payable": false,
      "stateMutability": "nonpayable",
      "type": "function"
    },
    {
      "inputs": [],
      "payable": false,
      "stateMutability": "nonpayable",
      "type": "constructor"
    },
    {
      "anonymous": false,
      "inputs": [
        {
          "indexed": false,
          "name": "id",
          "type": "uint256"
        },
        {
          "indexed": false,
          "name": "storeOwner",
          "type": "address"
        }
      ],
      "name": "NewStore",
      "type": "event"
    },
    {
      "anonymous": false,
      "inputs": [
        {
          "indexed": false,
          "name": "id",
          "type": "uint256"
        },
        {
          "indexed": false,
          "name": "storeId",
          "type": "uint256"
        }
      ],
      "name": "NewProduct",
      "type": "event"
    },
    {
      "anonymous": false,
      "inputs": [
        {
          "indexed": false,
          "name": "buyer",
          "type": "address"
        },
        {
          "indexed": false,
          "name": "productId",
          "type": "uint256"
        }
      ],
      "name": "NewTransaction",
      "type": "event"
    },
    {
      "anonymous": false,
      "inputs": [],
      "name": "Pause",
      "type": "event"
    },
    {
      "anonymous": false,
      "inputs": [],
      "name": "Unpause",
      "type": "event"
    },
    {
      "anonymous": false,
      "inputs": [
        {
          "indexed": true,
          "name": "previousOwner",
          "type": "address"
        }
      ],
      "name": "OwnershipRenounced",
      "type": "event"
    },
    {
      "anonymous": false,
      "inputs": [
        {
          "indexed": true,
          "name": "previousOwner",
          "type": "address"
        },
        {
          "indexed": true,
          "name": "newOwner",
          "type": "address"
        }
      ],
      "name": "OwnershipTransferred",
      "type": "event"
    }
  ],
  "bytecode": "0x608060405260008060146101000a81548160ff02191690831515021790555060006007556000600855600060095534801561003957600080fd5b50336000806101000a81548173ffffffffffffffffffffffffffffffffffffffff021916908373ffffffffffffffffffffffffffffffffffffffff160217905550614393806100896000396000f300608060405260043610610154576000357c0100000000000000000000000000000000000000000000000000000000900463ffffffff168063088e0e7114610159578063155dedf9146101a4578063237c980a146101dd57806336afc6fa1461023457806338e76a031461026e5780633f4ba83a1461028e5780635182d9f6146102a5578063524a046e146102bc5780635c975abb146103c55780635fd8c710146103f457806369aac3d21461040b578063715018a6146104445780637acc0b201461045b5780638456cb59146106005780638512fcc3146106175780638da5cb5b1461072a5780639ace38c214610781578063a1b141d41461080a578063b17489f514610835578063b77bf6001461088c578063d05ae922146108b7578063df345eec146109ac578063e0f6ef87146109c3578063e8a59cd8146109ee578063f2fde38b14610bb8578063f6b08cc514610bfb575b600080fd5b34801561016557600080fd5b5061018e6004803603810190808035906020019092919080359060200190929190505050610c3e565b6040518082815260200191505060405180910390f35b3480156101b057600080fd5b506101db60048036038101908080359060200190929190803515159060200190929190505050610c6e565b005b3480156101e957600080fd5b5061021e600480360381019080803573ffffffffffffffffffffffffffffffffffffffff169060200190929190505050610d3b565b6040518082815260200191505060405180910390f35b34801561024057600080fd5b50610249610d53565b6040518083151515158152602001821515151581526020019250505060405180910390f35b61028c60048036038101908080359060200190929190505050610e4e565b005b34801561029a57600080fd5b506102a3611268565b005b3480156102b157600080fd5b506102ba611326565b005b3480156102c857600080fd5b506103c3600480360381019080803590602001908201803590602001908080601f0160208091040260200160405190810160405280939291908181526020018383808284378201915050505050509192919290803590602001908201803590602001908080601f0160208091040260200160405190810160405280939291908181526020018383808284378201915050505050509192919290803590602001908201803590602001908080601f01602080910402602001604051908101604052809392919081815260200183838082843782019150505050505091929192908035906020019092919080359060200190929190505050611b64565b005b3480156103d157600080fd5b506103da611e63565b604051808215151515815260200191505060405180910390f35b34801561040057600080fd5b50610409611e76565b005b34801561041757600080fd5b5061044260048036038101908080359060200190929190803515159060200190929190505050611fb6565b005b34801561045057600080fd5b50610459612083565b005b34801561046757600080fd5b5061048660048036038101908080359060200190929190505050612185565b6040518089815260200188815260200187815260200186815260200185151515158152602001806020018060200180602001848103845287818151815260200191508051906020019080838360005b838110156104f05780820151818401526020810190506104d5565b50505050905090810190601f16801561051d5780820380516001836020036101000a031916815260200191505b50848103835286818151815260200191508051906020019080838360005b8381101561055657808201518184015260208101905061053b565b50505050905090810190601f1680156105835780820380516001836020036101000a031916815260200191505b50848103825285818151815260200191508051906020019080838360005b838110156105bc5780820151818401526020810190506105a1565b50505050905090810190601f1680156105e95780820380516001836020036101000a031916815260200191505b509b50505050505050505050505060405180910390f35b34801561060c57600080fd5b506106156123b1565b005b34801561062357600080fd5b5061072860048036038101908080359060200190929190803590602001908201803590602001908080601f0160208091040260200160405190810160405280939291908181526020018383808284378201915050505050509192919290803590602001908201803590602001908080601f0160208091040260200160405190810160405280939291908181526020018383808284378201915050505050509192919290803590602001908201803590602001908080601f01602080910402602001604051908101604052809392919081815260200183838082843782019150505050505091929192908035906020019092919080359060200190929190505050612471565b005b34801561073657600080fd5b5061073f612661565b604051808273ffffffffffffffffffffffffffffffffffffffff1673ffffffffffffffffffffffffffffffffffffffff16815260200191505060405180910390f35b34801561078d57600080fd5b506107ac60048036038101908080359060200190929190505050612686565b604051808681526020018581526020018481526020018381526020018273ffffffffffffffffffffffffffffffffffffffff1673ffffffffffffffffffffffffffffffffffffffff1681526020019550505050505060405180910390f35b34801561081657600080fd5b5061081f6126eb565b6040518082815260200191505060405180910390f35b34801561084157600080fd5b50610876600480360381019080803573ffffffffffffffffffffffffffffffffffffffff1690602001909291905050506126f1565b6040518082815260200191505060405180910390f35b34801561089857600080fd5b506108a1612709565b6040518082815260200191505060405180910390f35b3480156108c357600080fd5b506109aa600480360381019080803590602001908201803590602001908080601f0160208091040260200160405190810160405280939291908181526020018383808284378201915050505050509192919290803590602001908201803590602001908080601f0160208091040260200160405190810160405280939291908181526020018383808284378201915050505050509192919290803590602001908201803590602001908080601f016020809104026020016040519081016040528093929190818152602001838380828437820191505050505050919291929050505061270f565b005b3480156109b857600080fd5b506109c161287d565b005b3480156109cf57600080fd5b506109d8613836565b6040518082815260200191505060405180910390f35b3480156109fa57600080fd5b50610a196004803603810190808035906020019092919050505061383c565b604051808881526020018773ffffffffffffffffffffffffffffffffffffffff1673ffffffffffffffffffffffffffffffffffffffff16815260200186151515158152602001806020018060200180602001858152602001848103845288818151815260200191508051906020019080838360005b83811015610aa9578082015181840152602081019050610a8e565b50505050905090810190601f168015610ad65780820380516001836020036101000a031916815260200191505b50848103835287818151815260200191508051906020019080838360005b83811015610b0f578082015181840152602081019050610af4565b50505050905090810190601f168015610b3c5780820380516001836020036101000a031916815260200191505b50848103825286818151815260200191508051906020019080838360005b83811015610b75578082015181840152602081019050610b5a565b50505050905090810190601f168015610ba25780820380516001836020036101000a031916815260200191505b509a505050505050505050505060405180910390f35b348015610bc457600080fd5b50610bf9600480360381019080803573ffffffffffffffffffffffffffffffffffffffff169060200190929190505050613a82565b005b348015610c0757600080fd5b50610c3c600480360381019080803573ffffffffffffffffffffffffffffffffffffffff169060200190929190505050613ae9565b005b600360205281600052604060002081815481101515610c5957fe5b90600052602060002001600091509150505481565b60008060009054906101000a900473ffffffffffffffffffffffffffffffffffffffff1673ffffffffffffffffffffffffffffffffffffffff163373ffffffffffffffffffffffffffffffffffffffff16141515610ccb57600080fd5b600083118015610cdd57506008548311155b1515610ce857600080fd5b6005610cfe600185613de490919063ffffffff16565b815481101515610d0a57fe5b90600052602060002090600802019050818160040160006101000a81548160ff021916908315150217905550505050565b60016020528060005260406000206000915090505481565b6000806000600260003373ffffffffffffffffffffffffffffffffffffffff1673ffffffffffffffffffffffffffffffffffffffff1681526020019081526020016000205490506000809054906101000a900473ffffffffffffffffffffffffffffffffffffffff1673ffffffffffffffffffffffffffffffffffffffff163373ffffffffffffffffffffffffffffffffffffffff1614600082118015610dfc57506007548211155b8015610e4557506004610e19600184613de490919063ffffffff16565b815481101515610e2557fe5b906000526020600020906006020160010160149054906101000a900460ff165b92509250509091565b60008060008060149054906101000a900460ff16151515610e6e57600080fd5b600084118015610e8057506008548411155b1515610e8b57600080fd5b600a60009054906101000a900460ff16151515610ea757600080fd5b6001600a60006101000a81548160ff0219169083151502179055506005610ed8600186613de490919063ffffffff16565b815481101515610ee457fe5b906000526020600020906008020192508260040160009054906101000a900460ff168015610f16575082600201543410155b8015610f26575060008360030154115b1515610f3157600080fd5b610f4960018460030154613de490919063ffffffff16565b83600301819055506004610f6b60018560010154613de490919063ffffffff16565b815481101515610f7757fe5b906000526020600020906006020191506110018360020154600160008560010160009054906101000a900473ffffffffffffffffffffffffffffffffffffffff1673ffffffffffffffffffffffffffffffffffffffff1673ffffffffffffffffffffffffffffffffffffffff16815260200190815260200160002054613dfd90919063ffffffff16565b600160008460010160009054906101000a900473ffffffffffffffffffffffffffffffffffffffff1673ffffffffffffffffffffffffffffffffffffffff1673ffffffffffffffffffffffffffffffffffffffff1681526020019081526020016000208190555061107e6001600954613dfd90919063ffffffff16565b9050600660a0604051908101604052808381526020018460000154815260200185600001548152602001856002015481526020013373ffffffffffffffffffffffffffffffffffffffff16815250908060018154018082558091505090600182039060005260206000209060050201600090919290919091506000820151816000015560208201518160010155604082015181600201556060820151816003015560808201518160040160006101000a81548173ffffffffffffffffffffffffffffffffffffffff021916908373ffffffffffffffffffffffffffffffffffffffff16021790555050506009819055507fb1445bddd65a1181889e05face87a43c0fe440b363a232b44831c175c7309f58338460000154604051808373ffffffffffffffffffffffffffffffffffffffff1673ffffffffffffffffffffffffffffffffffffffff1681526020018281526020019250505060405180910390a18260020154341115611247573373ffffffffffffffffffffffffffffffffffffffff166108fc61121a856002015434613de490919063ffffffff16565b9081150290604051600060405180830381858888f19350505050158015611245573d6000803e3d6000fd5b505b6000600a60006101000a81548160ff02191690831515021790555050505050565b6000809054906101000a900473ffffffffffffffffffffffffffffffffffffffff1673ffffffffffffffffffffffffffffffffffffffff163373ffffffffffffffffffffffffffffffffffffffff161415156112c357600080fd5b600060149054906101000a900460ff1615156112de57600080fd5b60008060146101000a81548160ff0219169083151502179055507f7805862f689e2f13df9f062ff482ad3ad112aca9e0847911ed832e158c525b3360405160405180910390a1565b60008060008060009054906101000a900473ffffffffffffffffffffffffffffffffffffffff1673ffffffffffffffffffffffffffffffffffffffff163373ffffffffffffffffffffffffffffffffffffffff1614151561138657600080fd5b600092506113a06001600754613dfd90919063ffffffff16565b9150600460e0604051908101604052808481526020018573ffffffffffffffffffffffffffffffffffffffff1681526020016001151581526020016040805190810160405280601281526020017f4576656e74205469636b65742053746f7265000000000000000000000000000081525081526020016040805190810160405280601681526020017f57652073656c6c206576656e74207469636b65747321000000000000000000008152508152602001606060405190810160405280603f81526020017f68747470733a2f2f73332d61702d736f757468656173742d312e616d617a6f6e81526020017f6177732e636f6d2f62696e617469722e6465762f73746f72652d312e6a70670081525081526020016000815250908060018154018082558091505090600182039060005260206000209060060201600090919290919091506000820151816000015560208201518160010160006101000a81548173ffffffffffffffffffffffffffffffffffffffff021916908373ffffffffffffffffffffffffffffffffffffffff16021790555060408201518160010160146101000a81548160ff0219169083151502179055506060820151816002019080519060200190611570929190613f13565b50608082015181600301908051906020019061158d929190613f13565b5060a08201518160040190805190602001906115aa929190613f13565b5060c08201518160050155505060078190555081600260008573ffffffffffffffffffffffffffffffffffffffff1673ffffffffffffffffffffffffffffffffffffffff168152602001908152602001600020819055506004611617600184613de490919063ffffffff16565b81548110151561162357fe5b9060005260206000209060060201905060036000826000015481526020019081526020016000206116606001600854613dfd90919063ffffffff16565b90806001815401808255809150509060018203906000526020600020016000909192909190915055506005610100604051908101604052806116ae6001600854613dfd90919063ffffffff16565b815260200183600001548152602001678ac7230489e800008152602001600081526020016001151581526020016040805190810160405280601a81526020017f4544434f4e2050617269732031372d313820466562203230313700000000000081525081526020016040805190810160405280600e81526020017f457468657265756d206576656e740000000000000000000000000000000000008152508152602001608060405190810160405280604381526020017f68747470733a2f2f73332d61702d736f757468656173742d312e616d617a6f6e81526020017f6177732e636f6d2f62696e617469722e6465762f6576656e742d6564636f6e2e81526020017f706e670000000000000000000000000000000000000000000000000000000000815250815250908060018154018082558091505090600182039060005260206000209060080201600090919290919091506000820151816000015560208201518160010155604082015181600201556060820151816003015560808201518160040160006101000a81548160ff02191690831515021790555060a0820151816005019080519060200190611866929190613f13565b5060c0820151816006019080519060200190611883929190613f13565b5060e08201518160070190805190602001906118a0929190613f13565b5050506008819055506118c160018260050154613dfd90919063ffffffff16565b816005018190555060036000826000015481526020019081526020016000206118f66001600854613dfd90919063ffffffff16565b90806001815401808255809150509060018203906000526020600020016000909192909190915055506005610100604051908101604052806119446001600854613dfd90919063ffffffff16565b815260200183600001548152602001674563918244f400008152602001600581526020016001151581526020016040805190810160405280601a81526020017f455448495320486f6e67204b6f6e67203820536570203230313800000000000081525081526020016040805190810160405280600e81526020017f457468657265756d206576656e740000000000000000000000000000000000008152508152602001608060405190810160405280604381526020017f68747470733a2f2f73332d61702d736f757468656173742d312e616d617a6f6e81526020017f6177732e636f6d2f62696e617469722e6465762f6576656e742d65746869732e81526020017f706e670000000000000000000000000000000000000000000000000000000000815250815250908060018154018082558091505090600182039060005260206000209060080201600090919290919091506000820151816000015560208201518160010155604082015181600201556060820151816003015560808201518160040160006101000a81548160ff02191690831515021790555060a0820151816005019080519060200190611afc929190613f13565b5060c0820151816006019080519060200190611b19929190613f13565b5060e0820151816007019080519060200190611b36929190613f13565b505050600881905550611b5760018260050154613dfd90919063ffffffff16565b8160050181905550505050565b600080600080600260003373ffffffffffffffffffffffffffffffffffffffff1673ffffffffffffffffffffffffffffffffffffffff168152602001908152602001600020549050600081118015611bbe57506007548111155b8015611c0757506004611bdb600183613de490919063ffffffff16565b815481101515611be757fe5b906000526020600020906006020160010160149054906101000a900460ff165b1515611c1257600080fd5b600260003373ffffffffffffffffffffffffffffffffffffffff1673ffffffffffffffffffffffffffffffffffffffff1681526020019081526020016000205493506004611c6a600186613de490919063ffffffff16565b815481101515611c7657fe5b90600052602060002090600602019250611c9c6001600854613dfd90919063ffffffff16565b91506003600084600001548152602001908152602001600020829080600181540180825580915050906001820390600052602060002001600090919290919091505550600561010060405190810160405280848152602001856000015481526020018881526020018781526020016001151581526020018b81526020018a815260200189815250908060018154018082558091505090600182039060005260206000209060080201600090919290919091506000820151816000015560208201518160010155604082015181600201556060820151816003015560808201518160040160006101000a81548160ff02191690831515021790555060a0820151816005019080519060200190611db2929190613f13565b5060c0820151816006019080519060200190611dcf929190613f13565b5060e0820151816007019080519060200190611dec929190613f13565b505050600881905550611e0d60018460050154613dfd90919063ffffffff16565b83600501819055507fbf0d9db212432917c2a0eeb28f73de8ee51ace171b073777a21a14fbf5158b2b828460000154604051808381526020018281526020019250505060405180910390a1505050505050505050565b600060149054906101000a900460ff1681565b60008060149054906101000a900460ff16151515611e9357600080fd5b600a60009054906101000a900460ff16151515611eaf57600080fd5b6001600a60006101000a81548160ff021916908315150217905550600160003373ffffffffffffffffffffffffffffffffffffffff1673ffffffffffffffffffffffffffffffffffffffff1681526020019081526020016000205490506000600160003373ffffffffffffffffffffffffffffffffffffffff1673ffffffffffffffffffffffffffffffffffffffff168152602001908152602001600020819055503373ffffffffffffffffffffffffffffffffffffffff166108fc829081150290604051600060405180830381858888f19350505050158015611f97573d6000803e3d6000fd5b506000600a60006101000a81548160ff02191690831515021790555050565b60008060009054906101000a900473ffffffffffffffffffffffffffffffffffffffff1673ffffffffffffffffffffffffffffffffffffffff163373ffffffffffffffffffffffffffffffffffffffff1614151561201357600080fd5b60008311801561202557506007548311155b151561203057600080fd5b6004612046600185613de490919063ffffffff16565b81548110151561205257fe5b90600052602060002090600602019050818160010160146101000a81548160ff021916908315150217905550505050565b6000809054906101000a900473ffffffffffffffffffffffffffffffffffffffff1673ffffffffffffffffffffffffffffffffffffffff163373ffffffffffffffffffffffffffffffffffffffff161415156120de57600080fd5b6000809054906101000a900473ffffffffffffffffffffffffffffffffffffffff1673ffffffffffffffffffffffffffffffffffffffff167ff8df31144d9c2f0f6b59d69b8b98abd5459d07f2742c4df920b25aae33c6482060405160405180910390a260008060006101000a81548173ffffffffffffffffffffffffffffffffffffffff021916908373ffffffffffffffffffffffffffffffffffffffff160217905550565b60058181548110151561219457fe5b90600052602060002090600802016000915090508060000154908060010154908060020154908060030154908060040160009054906101000a900460ff1690806005018054600181600116156101000203166002900480601f01602080910402602001604051908101604052809291908181526020018280546001816001161561010002031660029004801561226b5780601f106122405761010080835404028352916020019161226b565b820191906000526020600020905b81548152906001019060200180831161224e57829003601f168201915b505050505090806006018054600181600116156101000203166002900480601f0160208091040260200160405190810160405280929190818152602001828054600181600116156101000203166002900480156123095780601f106122de57610100808354040283529160200191612309565b820191906000526020600020905b8154815290600101906020018083116122ec57829003601f168201915b505050505090806007018054600181600116156101000203166002900480601f0160208091040260200160405190810160405280929190818152602001828054600181600116156101000203166002900480156123a75780601f1061237c576101008083540402835291602001916123a7565b820191906000526020600020905b81548152906001019060200180831161238a57829003601f168201915b5050505050905088565b6000809054906101000a900473ffffffffffffffffffffffffffffffffffffffff1673ffffffffffffffffffffffffffffffffffffffff163373ffffffffffffffffffffffffffffffffffffffff1614151561240c57600080fd5b600060149054906101000a900460ff1615151561242857600080fd5b6001600060146101000a81548160ff0219169083151502179055507f6985a02210a168e66602d3235cb6db0e70f92b3ba4d376a33c0f3d9434bff62560405160405180910390a1565b600080600080600260003373ffffffffffffffffffffffffffffffffffffffff1673ffffffffffffffffffffffffffffffffffffffff1681526020019081526020016000205490506000811180156124cb57506007548111155b8015612514575060046124e8600183613de490919063ffffffff16565b8154811015156124f457fe5b906000526020600020906006020160010160149054906101000a900460ff165b151561251f57600080fd5b60008a11801561253157506008548a11155b151561253c57600080fd5b600260003373ffffffffffffffffffffffffffffffffffffffff1673ffffffffffffffffffffffffffffffffffffffff1681526020019081526020016000205493506004612594600186613de490919063ffffffff16565b8154811015156125a057fe5b9060005260206000209060060201925060056125c660018c613de490919063ffffffff16565b8154811015156125d257fe5b90600052602060002090600802019150826000015482600101541415156125f857600080fd5b88826005019080519060200190612610929190613f93565b5087826006019080519060200190612629929190613f93565b5086826007019080519060200190612642929190613f93565b5085826002018190555084826003018190555050505050505050505050565b6000809054906101000a900473ffffffffffffffffffffffffffffffffffffffff1681565b60068181548110151561269557fe5b90600052602060002090600502016000915090508060000154908060010154908060020154908060030154908060040160009054906101000a900473ffffffffffffffffffffffffffffffffffffffff16905085565b60075481565b60026020528060005260406000206000915090505481565b60095481565b600080600260003373ffffffffffffffffffffffffffffffffffffffff1673ffffffffffffffffffffffffffffffffffffffff16815260200190815260200160002054905060008111801561276657506007548111155b80156127af57506004612783600183613de490919063ffffffff16565b81548110151561278f57fe5b906000526020600020906006020160010160149054906101000a900460ff165b15156127ba57600080fd5b600461280f6001600260003373ffffffffffffffffffffffffffffffffffffffff1673ffffffffffffffffffffffffffffffffffffffff16815260200190815260200160002054613de490919063ffffffff16565b81548110151561281b57fe5b9060005260206000209060060201915084826002019080519060200190612843929190613f93565b508382600301908051906020019061285c929190613f93565b5082826004019080519060200190612875929190613f93565b505050505050565b60008060008060009054906101000a900473ffffffffffffffffffffffffffffffffffffffff1673ffffffffffffffffffffffffffffffffffffffff163373ffffffffffffffffffffffffffffffffffffffff161415156128dd57600080fd5b3392506128f66001600754613dfd90919063ffffffff16565b9150600460e0604051908101604052808481526020018573ffffffffffffffffffffffffffffffffffffffff1681526020016001151581526020016040805190810160405280601181526020017f436f6c642057616c6c65742053746f726500000000000000000000000000000081525081526020016040805190810160405280601581526020017f57652073656c6c20636f6c642077616c6c6574732100000000000000000000008152508152602001606060405190810160405280603f81526020017f68747470733a2f2f73332d61702d736f757468656173742d312e616d617a6f6e81526020017f6177732e636f6d2f62696e617469722e6465762f73746f72652d302e706e670081525081526020016000815250908060018154018082558091505090600182039060005260206000209060060201600090919290919091506000820151816000015560208201518160010160006101000a81548173ffffffffffffffffffffffffffffffffffffffff021916908373ffffffffffffffffffffffffffffffffffffffff16021790555060408201518160010160146101000a81548160ff0219169083151502179055506060820151816002019080519060200190612ac6929190613f13565b506080820151816003019080519060200190612ae3929190613f13565b5060a0820151816004019080519060200190612b00929190613f13565b5060c08201518160050155505060078190555081600260008573ffffffffffffffffffffffffffffffffffffffff1673ffffffffffffffffffffffffffffffffffffffff168152602001908152602001600020819055506004612b6d600184613de490919063ffffffff16565b815481101515612b7957fe5b906000526020600020906006020190506003600082600001548152602001908152602001600020612bb66001600854613dfd90919063ffffffff16565b9080600181540180825580915050906001820390600052602060002001600090919290919091505550600561010060405190810160405280612c046001600854613dfd90919063ffffffff16565b815260200183600001548152602001671bc16d674ec800008152602001606481526020016001151581526020016040805190810160405280600d81526020017f4c6564676572204e616e6f205300000000000000000000000000000000000000815250815260200160e06040519081016040528060a981526020016142bf60a991398152602001608060405190810160405280604a81526020017f68747470733a2f2f73332d61702d736f757468656173742d312e616d617a6f6e81526020017f6177732e636f6d2f62696e617469722e6465762f77616c6c65742d6c6564676581526020017f722d6e616e6f2e706e6700000000000000000000000000000000000000000000815250815250908060018154018082558091505090600182039060005260206000209060080201600090919290919091506000820151816000015560208201518160010155604082015181600201556060820151816003015560808201518160040160006101000a81548160ff02191690831515021790555060a0820151816005019080519060200190612da0929190613f13565b5060c0820151816006019080519060200190612dbd929190613f13565b5060e0820151816007019080519060200190612dda929190613f13565b505050600881905550612dfb60018260050154613dfd90919063ffffffff16565b81600501819055506003600082600001548152602001908152602001600020612e306001600854613dfd90919063ffffffff16565b9080600181540180825580915050906001820390600052602060002001600090919290919091505550600561010060405190810160405280612e7e6001600854613dfd90919063ffffffff16565b815260200183600001548152602001674563918244f400008152602001600081526020016001151581526020016040805190810160405280600b81526020017f4c656467657220426c756500000000000000000000000000000000000000000081525081526020016101206040519081016040528060e2815260200161411660e291398152602001608060405190810160405280604a81526020017f68747470733a2f2f73332d61702d736f757468656173742d312e616d617a6f6e81526020017f6177732e636f6d2f62696e617469722e6465762f77616c6c65742d6c6564676581526020017f722d626c75652e706e6700000000000000000000000000000000000000000000815250815250908060018154018082558091505090600182039060005260206000209060080201600090919290919091506000820151816000015560208201518160010155604082015181600201556060820151816003015560808201518160040160006101000a81548160ff02191690831515021790555060a082015181600501908051906020019061301b929190613f13565b5060c0820151816006019080519060200190613038929190613f13565b5060e0820151816007019080519060200190613055929190613f13565b50505060088190555061307660018260050154613dfd90919063ffffffff16565b816005018190555060036000826000015481526020019081526020016000206130ab6001600854613dfd90919063ffffffff16565b90806001815401808255809150509060018203906000526020600020016000909192909190915055506005610100604051908101604052806130f96001600854613dfd90919063ffffffff16565b815260200183600001548152602001670de0b6b3a76400008152602001601481526020016001151581526020016040805190810160405280601081526020017f5472657a6f72204f6e65205768697465000000000000000000000000000000008152508152602001606060405190810160405280603f81526020017f546865206d6f737420747275737465642068617264776172652077616c6c657481526020017f20696e2074686520776f726c642e2047657420796f75727320746f64617921008152508152602001608060405190810160405280604981526020017f68747470733a2f2f73332d61702d736f757468656173742d312e616d617a6f6e81526020017f6177732e636f6d2f62696e617469722e6465762f77616c6c65742d7472657a6f81526020017f722d6f6e652e6a70670000000000000000000000000000000000000000000000815250815250908060018154018082558091505090600182039060005260206000209060080201600090919290919091506000820151816000015560208201518160010155604082015181600201556060820151816003015560808201518160040160006101000a81548160ff02191690831515021790555060a08201518160050190805190602001906132d8929190613f13565b5060c08201518160060190805190602001906132f5929190613f13565b5060e0820151816007019080519060200190613312929190613f13565b50505060088190555061333360018260050154613dfd90919063ffffffff16565b816005018190555060036000826000015481526020019081526020016000206133686001600854613dfd90919063ffffffff16565b90806001815401808255809150509060018203906000526020600020016000909192909190915055506005610100604051908101604052806133b66001600854613dfd90919063ffffffff16565b8152602001836000015481526020016729a2241af62c00008152602001600a81526020016001151581526020016040805190810160405280600e81526020017f5472657a6f72204d6f64656c205400000000000000000000000000000000000081525081526020016101006040519081016040528060dd815260200161403960dd91398152602001608060405190810160405280604d81526020017f68747470733a2f2f73332d61702d736f757468656173742d312e616d617a6f6e81526020017f6177732e636f6d2f62696e617469722e6465762f77616c6c65742d7472657a6f81526020017f722d6d6f64656c2d742e6a706700000000000000000000000000000000000000815250815250908060018154018082558091505090600182039060005260206000209060080201600090919290919091506000820151816000015560208201518160010155604082015181600201556060820151816003015560808201518160040160006101000a81548160ff02191690831515021790555060a0820151816005019080519060200190613553929190613f13565b5060c0820151816006019080519060200190613570929190613f13565b5060e082015181600701908051906020019061358d929190613f13565b5050506008819055506135ae60018260050154613dfd90919063ffffffff16565b816005018190555060036000826000015481526020019081526020016000206135e36001600854613dfd90919063ffffffff16565b90806001815401808255809150509060018203906000526020600020016000909192909190915055506005610100604051908101604052806136316001600854613dfd90919063ffffffff16565b815260200183600001548152602001678ac7230489e800008152602001600f81526020016001151581526020016040805190810160405280601e81526020017f5472657a6f72204f6e6520426c61636b202b2043727970746f737465656c000081525081526020016101006040519081016040528060c781526020016141f860c791398152602001608060405190810160405280605581526020017f68747470733a2f2f73332d61702d736f757468656173742d312e616d617a6f6e81526020017f6177732e636f6d2f62696e617469722e6465762f77616c6c65742d7472657a6f81526020017f722d6f6e652d63727970746f737465656c2e6a70670000000000000000000000815250815250908060018154018082558091505090600182039060005260206000209060080201600090919290919091506000820151816000015560208201518160010155604082015181600201556060820151816003015560808201518160040160006101000a81548160ff02191690831515021790555060a08201518160050190805190602001906137ce929190613f13565b5060c08201518160060190805190602001906137eb929190613f13565b5060e0820151816007019080519060200190613808929190613f13565b50505060088190555061382960018260050154613dfd90919063ffffffff16565b8160050181905550505050565b60085481565b60048181548110151561384b57fe5b90600052602060002090600602016000915090508060000154908060010160009054906101000a900473ffffffffffffffffffffffffffffffffffffffff16908060010160149054906101000a900460ff1690806002018054600181600116156101000203166002900480601f0160208091040260200160405190810160405280929190818152602001828054600181600116156101000203166002900480156139365780601f1061390b57610100808354040283529160200191613936565b820191906000526020600020905b81548152906001019060200180831161391957829003601f168201915b505050505090806003018054600181600116156101000203166002900480601f0160208091040260200160405190810160405280929190818152602001828054600181600116156101000203166002900480156139d45780601f106139a9576101008083540402835291602001916139d4565b820191906000526020600020905b8154815290600101906020018083116139b757829003601f168201915b505050505090806004018054600181600116156101000203166002900480601f016020809104026020016040519081016040528092919081815260200182805460018160011615610100020316600290048015613a725780601f10613a4757610100808354040283529160200191613a72565b820191906000526020600020905b815481529060010190602001808311613a5557829003601f168201915b5050505050908060050154905087565b6000809054906101000a900473ffffffffffffffffffffffffffffffffffffffff1673ffffffffffffffffffffffffffffffffffffffff163373ffffffffffffffffffffffffffffffffffffffff16141515613add57600080fd5b613ae681613e19565b50565b60008060009054906101000a900473ffffffffffffffffffffffffffffffffffffffff1673ffffffffffffffffffffffffffffffffffffffff163373ffffffffffffffffffffffffffffffffffffffff16141515613b4657600080fd5b6000600260008473ffffffffffffffffffffffffffffffffffffffff1673ffffffffffffffffffffffffffffffffffffffff16815260200190815260200160002054141515613b9457600080fd5b613baa6001600754613dfd90919063ffffffff16565b9050600460e0604051908101604052808381526020018473ffffffffffffffffffffffffffffffffffffffff1681526020016001151581526020016020604051908101604052806000815250815260200160206040519081016040528060008152508152602001602060405190810160405280600081525081526020016000815250908060018154018082558091505090600182039060005260206000209060060201600090919290919091506000820151816000015560208201518160010160006101000a81548173ffffffffffffffffffffffffffffffffffffffff021916908373ffffffffffffffffffffffffffffffffffffffff16021790555060408201518160010160146101000a81548160ff0219169083151502179055506060820151816002019080519060200190613ce4929190613f13565b506080820151816003019080519060200190613d01929190613f13565b5060a0820151816004019080519060200190613d1e929190613f13565b5060c08201518160050155505060078190555080600260008473ffffffffffffffffffffffffffffffffffffffff1673ffffffffffffffffffffffffffffffffffffffff168152602001908152602001600020819055507fe6dacdb80468cc5a1f6a468c1c7dffaf8adf2888b4c8d588b09937dd22b54b658183604051808381526020018273ffffffffffffffffffffffffffffffffffffffff1673ffffffffffffffffffffffffffffffffffffffff1681526020019250505060405180910390a15050565b6000828211151515613df257fe5b818303905092915050565b60008183019050828110151515613e1057fe5b80905092915050565b600073ffffffffffffffffffffffffffffffffffffffff168173ffffffffffffffffffffffffffffffffffffffff1614151515613e5557600080fd5b8073ffffffffffffffffffffffffffffffffffffffff166000809054906101000a900473ffffffffffffffffffffffffffffffffffffffff1673ffffffffffffffffffffffffffffffffffffffff167f8be0079c531659141344cd1fd0a4f28419497f9722a3daafe3b4186f6b6457e060405160405180910390a3806000806101000a81548173ffffffffffffffffffffffffffffffffffffffff021916908373ffffffffffffffffffffffffffffffffffffffff16021790555050565b828054600181600116156101000203166002900490600052602060002090601f016020900481019282601f10613f5457805160ff1916838001178555613f82565b82800160010185558215613f82579182015b82811115613f81578251825591602001919060010190613f66565b5b509050613f8f9190614013565b5090565b828054600181600116156101000203166002900490600052602060002090601f016020900481019282601f10613fd457805160ff1916838001178555614002565b82800160010185558215614002579182015b82811115614001578251825591602001919060010190613fe6565b5b50905061400f9190614013565b5090565b61403591905b80821115614031576000816000905550600101614019565b5090565b905600546865205472657a6f72204d6f64656c205420697320746865206e6578742d67656e65726174696f6e2063727970746f63757272656e63792068617264776172652077616c6c65742c2064657369676e656420746f20626520796f757220756e6976657273616c207661756c7420666f7220616c6c206f6620796f7572206469676974616c206173736574732e2053746f726520616e6420656e637279707420796f757220636f696e732c2070617373776f72647320616e64206f74686572206469676974616c206b657973207769746820636f6e666964656e63652e4c656467657220426c75652069732061207072656d69756d2068617264776172652077616c6c6574207769746820616e20616476616e636564207573657220657870657269656e6365207468616e6b7320746f2061206c6172676520746f75636873637265656e20696e746572666163652e204974206973206275696c742061726f756e6420612053656375726520456c656d656e7420616e6420696e636c7564657320616c6c2074686520736563757269747920666561747572657320796f75e2809964206578706563742066726f6d2061204c6564676572206465766963652e4b65657020796f757220636f696e7320646f75626c652070726f7465637465642120416e20756c74696d6174652062756e646c6520666f722063727970746f2d626567696e6e65727320616e6420686f646c65727320616c696b652e2047657420746865205452455a4f52204f6e6520696e20626c61636b2c20696e206120636f6e76656e69656e74207061636b616765207769746820612064616d6167652d726573697374616e74207661756c7420666f7220796f7572207265636f7665727920736565642e50726f7465637420796f75722063727970746f20617373657473207769746820746865206d6f737420706f70756c6172206d756c746963757272656e63792068617264776172652077616c6c657420696e20746865206d61726b65742e20546865204c6564676572204e616e6f2053206973206275696c742061726f756e6420612073656375726520636869702c20656e737572696e67206f7074696d616c2073656375726974792ea165627a7a723058200dd834a34043e06b8c877fa267acaf666bfea0a9028fe14cc011ae15f9ccc8790029",
  "source": "pragma solidity ^0.4.23;\n\nimport \"./EthStoreStoreOwner.sol\";\nimport \"openzeppelin-solidity/contracts/math/SafeMath.sol\";\n\ncontract EthStore is EthStoreStoreOwner {\n\n  constructor() public {\n    // createSampleStore1();\n  }\n\n}",
  "sourcePath": "/Users/bichenkk/Desktop/ethstore/contracts/EthStore.sol",
  "compiler": {
    "name": "solc",
    "version": "0.4.24+commit.e67f0147.Emscripten.clang"
  },
  "schemaVersion": "2.0.1",
  "updatedAt": "2018-08-29T09:03:17.345Z"
}