{
  "contractName": "EthStoreSample",
  "abi": [
    {
      "constant": true,
      "inputs": [
        {
          "name": "",
          "type": "uint256"
        },
        {
          "name": "",
          "type": "uint256"
        }
      ],
      "name": "storeIdToProductIds",
      "outputs": [
        {
          "name": "",
          "type": "uint256"
        }
      ],
      "payable": false,
      "stateMutability": "view",
      "type": "function"
    },
    {
      "constant": true,
      "inputs": [
        {
          "name": "",
          "type": "address"
        }
      ],
      "name": "addressToBalance",
      "outputs": [
        {
          "name": "",
          "type": "uint256"
        }
      ],
      "payable": false,
      "stateMutability": "view",
      "type": "function"
    },
    {
      "constant": true,
      "inputs": [],
      "name": "getIdentity",
      "outputs": [
        {
          "name": "isAdministrator",
          "type": "bool"
        },
        {
          "name": "isStoreOwner",
          "type": "bool"
        }
      ],
      "payable": false,
      "stateMutability": "view",
      "type": "function"
    },
    {
      "constant": false,
      "inputs": [
        {
          "name": "_productId",
          "type": "uint256"
        }
      ],
      "name": "purchaseProduct",
      "outputs": [],
      "payable": true,
      "stateMutability": "payable",
      "type": "function"
    },
    {
      "constant": false,
      "inputs": [],
      "name": "unpause",
      "outputs": [],
      "payable": false,
      "stateMutability": "nonpayable",
      "type": "function"
    },
    {
      "constant": true,
      "inputs": [],
      "name": "paused",
      "outputs": [
        {
          "name": "",
          "type": "bool"
        }
      ],
      "payable": false,
      "stateMutability": "view",
      "type": "function"
    },
    {
      "constant": false,
      "inputs": [],
      "name": "withdrawBalance",
      "outputs": [],
      "payable": false,
      "stateMutability": "nonpayable",
      "type": "function"
    },
    {
      "constant": false,
      "inputs": [],
      "name": "renounceOwnership",
      "outputs": [],
      "payable": false,
      "stateMutability": "nonpayable",
      "type": "function"
    },
    {
      "constant": true,
      "inputs": [
        {
          "name": "",
          "type": "uint256"
        }
      ],
      "name": "products",
      "outputs": [
        {
          "name": "id",
          "type": "uint256"
        },
        {
          "name": "storeId",
          "type": "uint256"
        },
        {
          "name": "price",
          "type": "uint256"
        },
        {
          "name": "count",
          "type": "uint256"
        },
        {
          "name": "enabled",
          "type": "bool"
        },
        {
          "name": "name",
          "type": "string"
        },
        {
          "name": "description",
          "type": "string"
        },
        {
          "name": "imageUrl",
          "type": "string"
        }
      ],
      "payable": false,
      "stateMutability": "view",
      "type": "function"
    },
    {
      "constant": false,
      "inputs": [],
      "name": "pause",
      "outputs": [],
      "payable": false,
      "stateMutability": "nonpayable",
      "type": "function"
    },
    {
      "constant": true,
      "inputs": [],
      "name": "owner",
      "outputs": [
        {
          "name": "",
          "type": "address"
        }
      ],
      "payable": false,
      "stateMutability": "view",
      "type": "function"
    },
    {
      "constant": true,
      "inputs": [
        {
          "name": "",
          "type": "uint256"
        }
      ],
      "name": "transactions",
      "outputs": [
        {
          "name": "id",
          "type": "uint256"
        },
        {
          "name": "storeId",
          "type": "uint256"
        },
        {
          "name": "productId",
          "type": "uint256"
        },
        {
          "name": "price",
          "type": "uint256"
        },
        {
          "name": "buyer",
          "type": "address"
        }
      ],
      "payable": false,
      "stateMutability": "view",
      "type": "function"
    },
    {
      "constant": true,
      "inputs": [],
      "name": "storeCount",
      "outputs": [
        {
          "name": "",
          "type": "uint256"
        }
      ],
      "payable": false,
      "stateMutability": "view",
      "type": "function"
    },
    {
      "constant": true,
      "inputs": [
        {
          "name": "",
          "type": "address"
        }
      ],
      "name": "storeOwnerToStoreId",
      "outputs": [
        {
          "name": "",
          "type": "uint256"
        }
      ],
      "payable": false,
      "stateMutability": "view",
      "type": "function"
    },
    {
      "constant": true,
      "inputs": [],
      "name": "transactionCount",
      "outputs": [
        {
          "name": "",
          "type": "uint256"
        }
      ],
      "payable": false,
      "stateMutability": "view",
      "type": "function"
    },
    {
      "constant": true,
      "inputs": [],
      "name": "productCount",
      "outputs": [
        {
          "name": "",
          "type": "uint256"
        }
      ],
      "payable": false,
      "stateMutability": "view",
      "type": "function"
    },
    {
      "constant": true,
      "inputs": [
        {
          "name": "",
          "type": "uint256"
        }
      ],
      "name": "stores",
      "outputs": [
        {
          "name": "id",
          "type": "uint256"
        },
        {
          "name": "storeOwner",
          "type": "address"
        },
        {
          "name": "enabled",
          "type": "bool"
        },
        {
          "name": "name",
          "type": "string"
        },
        {
          "name": "description",
          "type": "string"
        },
        {
          "name": "imageUrl",
          "type": "string"
        },
        {
          "name": "productCount",
          "type": "uint256"
        }
      ],
      "payable": false,
      "stateMutability": "view",
      "type": "function"
    },
    {
      "constant": false,
      "inputs": [
        {
          "name": "_newOwner",
          "type": "address"
        }
      ],
      "name": "transferOwnership",
      "outputs": [],
      "payable": false,
      "stateMutability": "nonpayable",
      "type": "function"
    },
    {
      "anonymous": false,
      "inputs": [
        {
          "indexed": false,
          "name": "id",
          "type": "uint256"
        },
        {
          "indexed": false,
          "name": "storeOwner",
          "type": "address"
        }
      ],
      "name": "NewStore",
      "type": "event"
    },
    {
      "anonymous": false,
      "inputs": [
        {
          "indexed": false,
          "name": "id",
          "type": "uint256"
        },
        {
          "indexed": false,
          "name": "storeId",
          "type": "uint256"
        }
      ],
      "name": "NewProduct",
      "type": "event"
    },
    {
      "anonymous": false,
      "inputs": [
        {
          "indexed": false,
          "name": "buyer",
          "type": "address"
        },
        {
          "indexed": false,
          "name": "productId",
          "type": "uint256"
        }
      ],
      "name": "NewTransaction",
      "type": "event"
    },
    {
      "anonymous": false,
      "inputs": [],
      "name": "Pause",
      "type": "event"
    },
    {
      "anonymous": false,
      "inputs": [],
      "name": "Unpause",
      "type": "event"
    },
    {
      "anonymous": false,
      "inputs": [
        {
          "indexed": true,
          "name": "previousOwner",
          "type": "address"
        }
      ],
      "name": "OwnershipRenounced",
      "type": "event"
    },
    {
      "anonymous": false,
      "inputs": [
        {
          "indexed": true,
          "name": "previousOwner",
          "type": "address"
        },
        {
          "indexed": true,
          "name": "newOwner",
          "type": "address"
        }
      ],
      "name": "OwnershipTransferred",
      "type": "event"
    },
    {
      "constant": false,
      "inputs": [],
      "name": "createSampleStore1",
      "outputs": [],
      "payable": false,
      "stateMutability": "nonpayable",
      "type": "function"
    },
    {
      "constant": false,
      "inputs": [],
      "name": "createSampleStore2",
      "outputs": [],
      "payable": false,
      "stateMutability": "nonpayable",
      "type": "function"
    }
  ],
  "bytecode": "0x608060405260008060146101000a81548160ff021916908315150217905550600060075560006008556000600955336000806101000a81548173ffffffffffffffffffffffffffffffffffffffff021916908373ffffffffffffffffffffffffffffffffffffffff1602179055506134198061007c6000396000f300608060405260043610610112576000357c0100000000000000000000000000000000000000000000000000000000900463ffffffff168063088e0e7114610117578063237c980a1461016257806336afc6fa146101b957806338e76a03146101f35780633f4ba83a146102135780635182d9f61461022a5780635c975abb146102415780635fd8c71014610270578063715018a6146102875780637acc0b201461029e5780638456cb59146104435780638da5cb5b1461045a5780639ace38c2146104b1578063a1b141d41461053a578063b17489f514610565578063b77bf600146105bc578063df345eec146105e7578063e0f6ef87146105fe578063e8a59cd814610629578063f2fde38b146107f3575b600080fd5b34801561012357600080fd5b5061014c6004803603810190808035906020019092919080359060200190929190505050610836565b6040518082815260200191505060405180910390f35b34801561016e57600080fd5b506101a3600480360381019080803573ffffffffffffffffffffffffffffffffffffffff169060200190929190505050610866565b6040518082815260200191505060405180910390f35b3480156101c557600080fd5b506101ce61087e565b6040518083151515158152602001821515151581526020019250505060405180910390f35b61021160048036038101908080359060200190929190505050610979565b005b34801561021f57600080fd5b50610228610d93565b005b34801561023657600080fd5b5061023f610e51565b005b34801561024d57600080fd5b5061025661168f565b604051808215151515815260200191505060405180910390f35b34801561027c57600080fd5b506102856116a2565b005b34801561029357600080fd5b5061029c6117e2565b005b3480156102aa57600080fd5b506102c9600480360381019080803590602001909291905050506118e4565b6040518089815260200188815260200187815260200186815260200185151515158152602001806020018060200180602001848103845287818151815260200191508051906020019080838360005b83811015610333578082015181840152602081019050610318565b50505050905090810190601f1680156103605780820380516001836020036101000a031916815260200191505b50848103835286818151815260200191508051906020019080838360005b8381101561039957808201518184015260208101905061037e565b50505050905090810190601f1680156103c65780820380516001836020036101000a031916815260200191505b50848103825285818151815260200191508051906020019080838360005b838110156103ff5780820151818401526020810190506103e4565b50505050905090810190601f16801561042c5780820380516001836020036101000a031916815260200191505b509b50505050505050505050505060405180910390f35b34801561044f57600080fd5b50610458611b10565b005b34801561046657600080fd5b5061046f611bd0565b604051808273ffffffffffffffffffffffffffffffffffffffff1673ffffffffffffffffffffffffffffffffffffffff16815260200191505060405180910390f35b3480156104bd57600080fd5b506104dc60048036038101908080359060200190929190505050611bf5565b604051808681526020018581526020018481526020018381526020018273ffffffffffffffffffffffffffffffffffffffff1673ffffffffffffffffffffffffffffffffffffffff1681526020019550505050505060405180910390f35b34801561054657600080fd5b5061054f611c5a565b6040518082815260200191505060405180910390f35b34801561057157600080fd5b506105a6600480360381019080803573ffffffffffffffffffffffffffffffffffffffff169060200190929190505050611c60565b6040518082815260200191505060405180910390f35b3480156105c857600080fd5b506105d1611c78565b6040518082815260200191505060405180910390f35b3480156105f357600080fd5b506105fc611c7e565b005b34801561060a57600080fd5b50610613612c37565b6040518082815260200191505060405180910390f35b34801561063557600080fd5b5061065460048036038101908080359060200190929190505050612c3d565b604051808881526020018773ffffffffffffffffffffffffffffffffffffffff1673ffffffffffffffffffffffffffffffffffffffff16815260200186151515158152602001806020018060200180602001858152602001848103845288818151815260200191508051906020019080838360005b838110156106e45780820151818401526020810190506106c9565b50505050905090810190601f1680156107115780820380516001836020036101000a031916815260200191505b50848103835287818151815260200191508051906020019080838360005b8381101561074a57808201518184015260208101905061072f565b50505050905090810190601f1680156107775780820380516001836020036101000a031916815260200191505b50848103825286818151815260200191508051906020019080838360005b838110156107b0578082015181840152602081019050610795565b50505050905090810190601f1680156107dd5780820380516001836020036101000a031916815260200191505b509a505050505050505050505060405180910390f35b3480156107ff57600080fd5b50610834600480360381019080803573ffffffffffffffffffffffffffffffffffffffff169060200190929190505050612e83565b005b60036020528160005260406000208181548110151561085157fe5b90600052602060002001600091509150505481565b60016020528060005260406000206000915090505481565b6000806000600260003373ffffffffffffffffffffffffffffffffffffffff1673ffffffffffffffffffffffffffffffffffffffff1681526020019081526020016000205490506000809054906101000a900473ffffffffffffffffffffffffffffffffffffffff1673ffffffffffffffffffffffffffffffffffffffff163373ffffffffffffffffffffffffffffffffffffffff161460008211801561092757506007548211155b801561097057506004610944600184612eea90919063ffffffff16565b81548110151561095057fe5b906000526020600020906006020160010160149054906101000a900460ff165b92509250509091565b60008060008060149054906101000a900460ff1615151561099957600080fd5b6000841180156109ab57506008548411155b15156109b657600080fd5b600a60009054906101000a900460ff161515156109d257600080fd5b6001600a60006101000a81548160ff0219169083151502179055506005610a03600186612eea90919063ffffffff16565b815481101515610a0f57fe5b906000526020600020906008020192508260040160009054906101000a900460ff168015610a41575082600201543410155b8015610a51575060008360030154115b1515610a5c57600080fd5b610a7460018460030154612eea90919063ffffffff16565b83600301819055506004610a9660018560010154612eea90919063ffffffff16565b815481101515610aa257fe5b90600052602060002090600602019150610b2c8360020154600160008560010160009054906101000a900473ffffffffffffffffffffffffffffffffffffffff1673ffffffffffffffffffffffffffffffffffffffff1673ffffffffffffffffffffffffffffffffffffffff16815260200190815260200160002054612f0390919063ffffffff16565b600160008460010160009054906101000a900473ffffffffffffffffffffffffffffffffffffffff1673ffffffffffffffffffffffffffffffffffffffff1673ffffffffffffffffffffffffffffffffffffffff16815260200190815260200160002081905550610ba96001600954612f0390919063ffffffff16565b9050600660a0604051908101604052808381526020018460000154815260200185600001548152602001856002015481526020013373ffffffffffffffffffffffffffffffffffffffff16815250908060018154018082558091505090600182039060005260206000209060050201600090919290919091506000820151816000015560208201518160010155604082015181600201556060820151816003015560808201518160040160006101000a81548173ffffffffffffffffffffffffffffffffffffffff021916908373ffffffffffffffffffffffffffffffffffffffff16021790555050506009819055507fb1445bddd65a1181889e05face87a43c0fe440b363a232b44831c175c7309f58338460000154604051808373ffffffffffffffffffffffffffffffffffffffff1673ffffffffffffffffffffffffffffffffffffffff1681526020018281526020019250505060405180910390a18260020154341115610d72573373ffffffffffffffffffffffffffffffffffffffff166108fc610d45856002015434612eea90919063ffffffff16565b9081150290604051600060405180830381858888f19350505050158015610d70573d6000803e3d6000fd5b505b6000600a60006101000a81548160ff02191690831515021790555050505050565b6000809054906101000a900473ffffffffffffffffffffffffffffffffffffffff1673ffffffffffffffffffffffffffffffffffffffff163373ffffffffffffffffffffffffffffffffffffffff16141515610dee57600080fd5b600060149054906101000a900460ff161515610e0957600080fd5b60008060146101000a81548160ff0219169083151502179055507f7805862f689e2f13df9f062ff482ad3ad112aca9e0847911ed832e158c525b3360405160405180910390a1565b60008060008060009054906101000a900473ffffffffffffffffffffffffffffffffffffffff1673ffffffffffffffffffffffffffffffffffffffff163373ffffffffffffffffffffffffffffffffffffffff16141515610eb157600080fd5b60009250610ecb6001600754612f0390919063ffffffff16565b9150600460e0604051908101604052808481526020018573ffffffffffffffffffffffffffffffffffffffff1681526020016001151581526020016040805190810160405280601281526020017f4576656e74205469636b65742053746f7265000000000000000000000000000081525081526020016040805190810160405280601681526020017f57652073656c6c206576656e74207469636b65747321000000000000000000008152508152602001606060405190810160405280603f81526020017f68747470733a2f2f73332d61702d736f757468656173742d312e616d617a6f6e81526020017f6177732e636f6d2f62696e617469722e6465762f73746f72652d312e6a70670081525081526020016000815250908060018154018082558091505090600182039060005260206000209060060201600090919290919091506000820151816000015560208201518160010160006101000a81548173ffffffffffffffffffffffffffffffffffffffff021916908373ffffffffffffffffffffffffffffffffffffffff16021790555060408201518160010160146101000a81548160ff021916908315150217905550606082015181600201908051906020019061109b929190613019565b5060808201518160030190805190602001906110b8929190613019565b5060a08201518160040190805190602001906110d5929190613019565b5060c08201518160050155505060078190555081600260008573ffffffffffffffffffffffffffffffffffffffff1673ffffffffffffffffffffffffffffffffffffffff168152602001908152602001600020819055506004611142600184612eea90919063ffffffff16565b81548110151561114e57fe5b90600052602060002090600602019050600360008260000154815260200190815260200160002061118b6001600854612f0390919063ffffffff16565b90806001815401808255809150509060018203906000526020600020016000909192909190915055506005610100604051908101604052806111d96001600854612f0390919063ffffffff16565b815260200183600001548152602001678ac7230489e800008152602001600081526020016001151581526020016040805190810160405280601a81526020017f4544434f4e2050617269732031372d313820466562203230313700000000000081525081526020016040805190810160405280600e81526020017f457468657265756d206576656e740000000000000000000000000000000000008152508152602001608060405190810160405280604381526020017f68747470733a2f2f73332d61702d736f757468656173742d312e616d617a6f6e81526020017f6177732e636f6d2f62696e617469722e6465762f6576656e742d6564636f6e2e81526020017f706e670000000000000000000000000000000000000000000000000000000000815250815250908060018154018082558091505090600182039060005260206000209060080201600090919290919091506000820151816000015560208201518160010155604082015181600201556060820151816003015560808201518160040160006101000a81548160ff02191690831515021790555060a0820151816005019080519060200190611391929190613019565b5060c08201518160060190805190602001906113ae929190613019565b5060e08201518160070190805190602001906113cb929190613019565b5050506008819055506113ec60018260050154612f0390919063ffffffff16565b816005018190555060036000826000015481526020019081526020016000206114216001600854612f0390919063ffffffff16565b908060018154018082558091505090600182039060005260206000200160009091929091909150555060056101006040519081016040528061146f6001600854612f0390919063ffffffff16565b815260200183600001548152602001674563918244f400008152602001600581526020016001151581526020016040805190810160405280601a81526020017f455448495320486f6e67204b6f6e67203820536570203230313800000000000081525081526020016040805190810160405280600e81526020017f457468657265756d206576656e740000000000000000000000000000000000008152508152602001608060405190810160405280604381526020017f68747470733a2f2f73332d61702d736f757468656173742d312e616d617a6f6e81526020017f6177732e636f6d2f62696e617469722e6465762f6576656e742d65746869732e81526020017f706e670000000000000000000000000000000000000000000000000000000000815250815250908060018154018082558091505090600182039060005260206000209060080201600090919290919091506000820151816000015560208201518160010155604082015181600201556060820151816003015560808201518160040160006101000a81548160ff02191690831515021790555060a0820151816005019080519060200190611627929190613019565b5060c0820151816006019080519060200190611644929190613019565b5060e0820151816007019080519060200190611661929190613019565b50505060088190555061168260018260050154612f0390919063ffffffff16565b8160050181905550505050565b600060149054906101000a900460ff1681565b60008060149054906101000a900460ff161515156116bf57600080fd5b600a60009054906101000a900460ff161515156116db57600080fd5b6001600a60006101000a81548160ff021916908315150217905550600160003373ffffffffffffffffffffffffffffffffffffffff1673ffffffffffffffffffffffffffffffffffffffff1681526020019081526020016000205490506000600160003373ffffffffffffffffffffffffffffffffffffffff1673ffffffffffffffffffffffffffffffffffffffff168152602001908152602001600020819055503373ffffffffffffffffffffffffffffffffffffffff166108fc829081150290604051600060405180830381858888f193505050501580156117c3573d6000803e3d6000fd5b506000600a60006101000a81548160ff02191690831515021790555050565b6000809054906101000a900473ffffffffffffffffffffffffffffffffffffffff1673ffffffffffffffffffffffffffffffffffffffff163373ffffffffffffffffffffffffffffffffffffffff1614151561183d57600080fd5b6000809054906101000a900473ffffffffffffffffffffffffffffffffffffffff1673ffffffffffffffffffffffffffffffffffffffff167ff8df31144d9c2f0f6b59d69b8b98abd5459d07f2742c4df920b25aae33c6482060405160405180910390a260008060006101000a81548173ffffffffffffffffffffffffffffffffffffffff021916908373ffffffffffffffffffffffffffffffffffffffff160217905550565b6005818154811015156118f357fe5b90600052602060002090600802016000915090508060000154908060010154908060020154908060030154908060040160009054906101000a900460ff1690806005018054600181600116156101000203166002900480601f0160208091040260200160405190810160405280929190818152602001828054600181600116156101000203166002900480156119ca5780601f1061199f576101008083540402835291602001916119ca565b820191906000526020600020905b8154815290600101906020018083116119ad57829003601f168201915b505050505090806006018054600181600116156101000203166002900480601f016020809104026020016040519081016040528092919081815260200182805460018160011615610100020316600290048015611a685780601f10611a3d57610100808354040283529160200191611a68565b820191906000526020600020905b815481529060010190602001808311611a4b57829003601f168201915b505050505090806007018054600181600116156101000203166002900480601f016020809104026020016040519081016040528092919081815260200182805460018160011615610100020316600290048015611b065780601f10611adb57610100808354040283529160200191611b06565b820191906000526020600020905b815481529060010190602001808311611ae957829003601f168201915b5050505050905088565b6000809054906101000a900473ffffffffffffffffffffffffffffffffffffffff1673ffffffffffffffffffffffffffffffffffffffff163373ffffffffffffffffffffffffffffffffffffffff16141515611b6b57600080fd5b600060149054906101000a900460ff16151515611b8757600080fd5b6001600060146101000a81548160ff0219169083151502179055507f6985a02210a168e66602d3235cb6db0e70f92b3ba4d376a33c0f3d9434bff62560405160405180910390a1565b6000809054906101000a900473ffffffffffffffffffffffffffffffffffffffff1681565b600681815481101515611c0457fe5b90600052602060002090600502016000915090508060000154908060010154908060020154908060030154908060040160009054906101000a900473ffffffffffffffffffffffffffffffffffffffff16905085565b60075481565b60026020528060005260406000206000915090505481565b60095481565b60008060008060009054906101000a900473ffffffffffffffffffffffffffffffffffffffff1673ffffffffffffffffffffffffffffffffffffffff163373ffffffffffffffffffffffffffffffffffffffff16141515611cde57600080fd5b339250611cf76001600754612f0390919063ffffffff16565b9150600460e0604051908101604052808481526020018573ffffffffffffffffffffffffffffffffffffffff1681526020016001151581526020016040805190810160405280601181526020017f436f6c642057616c6c65742053746f726500000000000000000000000000000081525081526020016040805190810160405280601581526020017f57652073656c6c20636f6c642077616c6c6574732100000000000000000000008152508152602001606060405190810160405280603f81526020017f68747470733a2f2f73332d61702d736f757468656173742d312e616d617a6f6e81526020017f6177732e636f6d2f62696e617469722e6465762f73746f72652d302e706e670081525081526020016000815250908060018154018082558091505090600182039060005260206000209060060201600090919290919091506000820151816000015560208201518160010160006101000a81548173ffffffffffffffffffffffffffffffffffffffff021916908373ffffffffffffffffffffffffffffffffffffffff16021790555060408201518160010160146101000a81548160ff0219169083151502179055506060820151816002019080519060200190611ec7929190613019565b506080820151816003019080519060200190611ee4929190613019565b5060a0820151816004019080519060200190611f01929190613019565b5060c08201518160050155505060078190555081600260008573ffffffffffffffffffffffffffffffffffffffff1673ffffffffffffffffffffffffffffffffffffffff168152602001908152602001600020819055506004611f6e600184612eea90919063ffffffff16565b815481101515611f7a57fe5b906000526020600020906006020190506003600082600001548152602001908152602001600020611fb76001600854612f0390919063ffffffff16565b90806001815401808255809150509060018203906000526020600020016000909192909190915055506005610100604051908101604052806120056001600854612f0390919063ffffffff16565b815260200183600001548152602001671bc16d674ec800008152602001606481526020016001151581526020016040805190810160405280600d81526020017f4c6564676572204e616e6f205300000000000000000000000000000000000000815250815260200160e06040519081016040528060a9815260200161334560a991398152602001608060405190810160405280604a81526020017f68747470733a2f2f73332d61702d736f757468656173742d312e616d617a6f6e81526020017f6177732e636f6d2f62696e617469722e6465762f77616c6c65742d6c6564676581526020017f722d6e616e6f2e706e6700000000000000000000000000000000000000000000815250815250908060018154018082558091505090600182039060005260206000209060080201600090919290919091506000820151816000015560208201518160010155604082015181600201556060820151816003015560808201518160040160006101000a81548160ff02191690831515021790555060a08201518160050190805190602001906121a1929190613019565b5060c08201518160060190805190602001906121be929190613019565b5060e08201518160070190805190602001906121db929190613019565b5050506008819055506121fc60018260050154612f0390919063ffffffff16565b816005018190555060036000826000015481526020019081526020016000206122316001600854612f0390919063ffffffff16565b908060018154018082558091505090600182039060005260206000200160009091929091909150555060056101006040519081016040528061227f6001600854612f0390919063ffffffff16565b815260200183600001548152602001674563918244f400008152602001600081526020016001151581526020016040805190810160405280600b81526020017f4c656467657220426c756500000000000000000000000000000000000000000081525081526020016101206040519081016040528060e2815260200161319c60e291398152602001608060405190810160405280604a81526020017f68747470733a2f2f73332d61702d736f757468656173742d312e616d617a6f6e81526020017f6177732e636f6d2f62696e617469722e6465762f77616c6c65742d6c6564676581526020017f722d626c75652e706e6700000000000000000000000000000000000000000000815250815250908060018154018082558091505090600182039060005260206000209060080201600090919290919091506000820151816000015560208201518160010155604082015181600201556060820151816003015560808201518160040160006101000a81548160ff02191690831515021790555060a082015181600501908051906020019061241c929190613019565b5060c0820151816006019080519060200190612439929190613019565b5060e0820151816007019080519060200190612456929190613019565b50505060088190555061247760018260050154612f0390919063ffffffff16565b816005018190555060036000826000015481526020019081526020016000206124ac6001600854612f0390919063ffffffff16565b90806001815401808255809150509060018203906000526020600020016000909192909190915055506005610100604051908101604052806124fa6001600854612f0390919063ffffffff16565b815260200183600001548152602001670de0b6b3a76400008152602001601481526020016001151581526020016040805190810160405280601081526020017f5472657a6f72204f6e65205768697465000000000000000000000000000000008152508152602001606060405190810160405280603f81526020017f546865206d6f737420747275737465642068617264776172652077616c6c657481526020017f20696e2074686520776f726c642e2047657420796f75727320746f64617921008152508152602001608060405190810160405280604981526020017f68747470733a2f2f73332d61702d736f757468656173742d312e616d617a6f6e81526020017f6177732e636f6d2f62696e617469722e6465762f77616c6c65742d7472657a6f81526020017f722d6f6e652e6a70670000000000000000000000000000000000000000000000815250815250908060018154018082558091505090600182039060005260206000209060080201600090919290919091506000820151816000015560208201518160010155604082015181600201556060820151816003015560808201518160040160006101000a81548160ff02191690831515021790555060a08201518160050190805190602001906126d9929190613019565b5060c08201518160060190805190602001906126f6929190613019565b5060e0820151816007019080519060200190612713929190613019565b50505060088190555061273460018260050154612f0390919063ffffffff16565b816005018190555060036000826000015481526020019081526020016000206127696001600854612f0390919063ffffffff16565b90806001815401808255809150509060018203906000526020600020016000909192909190915055506005610100604051908101604052806127b76001600854612f0390919063ffffffff16565b8152602001836000015481526020016729a2241af62c00008152602001600a81526020016001151581526020016040805190810160405280600e81526020017f5472657a6f72204d6f64656c205400000000000000000000000000000000000081525081526020016101006040519081016040528060dd81526020016130bf60dd91398152602001608060405190810160405280604d81526020017f68747470733a2f2f73332d61702d736f757468656173742d312e616d617a6f6e81526020017f6177732e636f6d2f62696e617469722e6465762f77616c6c65742d7472657a6f81526020017f722d6d6f64656c2d742e6a706700000000000000000000000000000000000000815250815250908060018154018082558091505090600182039060005260206000209060080201600090919290919091506000820151816000015560208201518160010155604082015181600201556060820151816003015560808201518160040160006101000a81548160ff02191690831515021790555060a0820151816005019080519060200190612954929190613019565b5060c0820151816006019080519060200190612971929190613019565b5060e082015181600701908051906020019061298e929190613019565b5050506008819055506129af60018260050154612f0390919063ffffffff16565b816005018190555060036000826000015481526020019081526020016000206129e46001600854612f0390919063ffffffff16565b9080600181540180825580915050906001820390600052602060002001600090919290919091505550600561010060405190810160405280612a326001600854612f0390919063ffffffff16565b815260200183600001548152602001678ac7230489e800008152602001600f81526020016001151581526020016040805190810160405280601e81526020017f5472657a6f72204f6e6520426c61636b202b2043727970746f737465656c000081525081526020016101006040519081016040528060c7815260200161327e60c791398152602001608060405190810160405280605581526020017f68747470733a2f2f73332d61702d736f757468656173742d312e616d617a6f6e81526020017f6177732e636f6d2f62696e617469722e6465762f77616c6c65742d7472657a6f81526020017f722d6f6e652d63727970746f737465656c2e6a70670000000000000000000000815250815250908060018154018082558091505090600182039060005260206000209060080201600090919290919091506000820151816000015560208201518160010155604082015181600201556060820151816003015560808201518160040160006101000a81548160ff02191690831515021790555060a0820151816005019080519060200190612bcf929190613019565b5060c0820151816006019080519060200190612bec929190613019565b5060e0820151816007019080519060200190612c09929190613019565b505050600881905550612c2a60018260050154612f0390919063ffffffff16565b8160050181905550505050565b60085481565b600481815481101515612c4c57fe5b90600052602060002090600602016000915090508060000154908060010160009054906101000a900473ffffffffffffffffffffffffffffffffffffffff16908060010160149054906101000a900460ff1690806002018054600181600116156101000203166002900480601f016020809104026020016040519081016040528092919081815260200182805460018160011615610100020316600290048015612d375780601f10612d0c57610100808354040283529160200191612d37565b820191906000526020600020905b815481529060010190602001808311612d1a57829003601f168201915b505050505090806003018054600181600116156101000203166002900480601f016020809104026020016040519081016040528092919081815260200182805460018160011615610100020316600290048015612dd55780601f10612daa57610100808354040283529160200191612dd5565b820191906000526020600020905b815481529060010190602001808311612db857829003601f168201915b505050505090806004018054600181600116156101000203166002900480601f016020809104026020016040519081016040528092919081815260200182805460018160011615610100020316600290048015612e735780601f10612e4857610100808354040283529160200191612e73565b820191906000526020600020905b815481529060010190602001808311612e5657829003601f168201915b5050505050908060050154905087565b6000809054906101000a900473ffffffffffffffffffffffffffffffffffffffff1673ffffffffffffffffffffffffffffffffffffffff163373ffffffffffffffffffffffffffffffffffffffff16141515612ede57600080fd5b612ee781612f1f565b50565b6000828211151515612ef857fe5b818303905092915050565b60008183019050828110151515612f1657fe5b80905092915050565b600073ffffffffffffffffffffffffffffffffffffffff168173ffffffffffffffffffffffffffffffffffffffff1614151515612f5b57600080fd5b8073ffffffffffffffffffffffffffffffffffffffff166000809054906101000a900473ffffffffffffffffffffffffffffffffffffffff1673ffffffffffffffffffffffffffffffffffffffff167f8be0079c531659141344cd1fd0a4f28419497f9722a3daafe3b4186f6b6457e060405160405180910390a3806000806101000a81548173ffffffffffffffffffffffffffffffffffffffff021916908373ffffffffffffffffffffffffffffffffffffffff16021790555050565b828054600181600116156101000203166002900490600052602060002090601f016020900481019282601f1061305a57805160ff1916838001178555613088565b82800160010185558215613088579182015b8281111561308757825182559160200191906001019061306c565b5b5090506130959190613099565b5090565b6130bb91905b808211156130b757600081600090555060010161309f565b5090565b905600546865205472657a6f72204d6f64656c205420697320746865206e6578742d67656e65726174696f6e2063727970746f63757272656e63792068617264776172652077616c6c65742c2064657369676e656420746f20626520796f757220756e6976657273616c207661756c7420666f7220616c6c206f6620796f7572206469676974616c206173736574732e2053746f726520616e6420656e637279707420796f757220636f696e732c2070617373776f72647320616e64206f74686572206469676974616c206b657973207769746820636f6e666964656e63652e4c656467657220426c75652069732061207072656d69756d2068617264776172652077616c6c6574207769746820616e20616476616e636564207573657220657870657269656e6365207468616e6b7320746f2061206c6172676520746f75636873637265656e20696e746572666163652e204974206973206275696c742061726f756e6420612053656375726520456c656d656e7420616e6420696e636c7564657320616c6c2074686520736563757269747920666561747572657320796f75e2809964206578706563742066726f6d2061204c6564676572206465766963652e4b65657020796f757220636f696e7320646f75626c652070726f7465637465642120416e20756c74696d6174652062756e646c6520666f722063727970746f2d626567696e6e65727320616e6420686f646c65727320616c696b652e2047657420746865205452455a4f52204f6e6520696e20626c61636b2c20696e206120636f6e76656e69656e74207061636b616765207769746820612064616d6167652d726573697374616e74207661756c7420666f7220796f7572207265636f7665727920736565642e50726f7465637420796f75722063727970746f20617373657473207769746820746865206d6f737420706f70756c6172206d756c746963757272656e63792068617264776172652077616c6c657420696e20746865206d61726b65742e20546865204c6564676572204e616e6f2053206973206275696c742061726f756e6420612073656375726520636869702c20656e737572696e67206f7074696d616c2073656375726974792ea165627a7a72305820e637beea38b71660932c20d57f28e2d45ad0fb69a23560647053c00a792c1c750029",
  "source": "pragma solidity ^0.4.23;\n\nimport \"./EthStoreBase.sol\";\nimport \"openzeppelin-solidity/contracts/math/SafeMath.sol\";\n\ncontract EthStoreSample is EthStoreBase {\n\n  using SafeMath for uint256;\n\n  /** @dev Create a sample store on contract creator\n    */\n  function createSampleStore1() public onlyOwner {\n    address storeOwner = msg.sender;\n    uint256 storeId = storeCount.add(1);\n    storeCount = stores.push(\n      Store(\n        storeId,\n        storeOwner,\n        true,\n        \"Cold Wallet Store\",\n        \"We sell cold wallets!\",\n        \"https://s3-ap-southeast-1.amazonaws.com/binatir.dev/store-0.png\",\n        0));\n    storeOwnerToStoreId[storeOwner] = storeId;\n\n    Store storage store = stores[storeId.sub(1)];\n\n    storeIdToProductIds[store.id].push(productCount.add(1));\n    productCount = products.push(\n      Product(productCount.add(1),\n      store.id,\n      2 ether,\n      100,\n      true,\n      \"Ledger Nano S\",\n      \"Protect your crypto assets with the most popular multicurrency hardware wallet in the market. The Ledger Nano S is built around a secure chip, ensuring optimal security.\",\n      \"https://s3-ap-southeast-1.amazonaws.com/binatir.dev/wallet-ledger-nano.png\"\n    ));\n    store.productCount = store.productCount.add(1);\n\n    storeIdToProductIds[store.id].push(productCount.add(1));\n    productCount = products.push(\n      Product(productCount.add(1),\n      store.id,\n      5 ether,\n      0,\n      true,\n      \"Ledger Blue\",\n      \"Ledger Blue is a premium hardware wallet with an advanced user experience thanks to a large touchscreen interface. It is built around a Secure Element and includes all the security features youd expect from a Ledger device.\",\n      \"https://s3-ap-southeast-1.amazonaws.com/binatir.dev/wallet-ledger-blue.png\"\n    ));\n    store.productCount = store.productCount.add(1);\n\n    storeIdToProductIds[store.id].push(productCount.add(1));\n    productCount = products.push(\n      Product(productCount.add(1),\n      store.id,\n      1 ether,\n      20,\n      true,\n      \"Trezor One White\",\n      \"The most trusted hardware wallet in the world. Get yours today!\",\n      \"https://s3-ap-southeast-1.amazonaws.com/binatir.dev/wallet-trezor-one.jpg\"\n    ));\n    store.productCount = store.productCount.add(1);\n\n    storeIdToProductIds[store.id].push(productCount.add(1));\n    productCount = products.push(\n      Product(productCount.add(1),\n      store.id,\n      3 ether,\n      10,\n      true,\n      \"Trezor Model T\",\n      \"The Trezor Model T is the next-generation cryptocurrency hardware wallet, designed to be your universal vault for all of your digital assets. Store and encrypt your coins, passwords and other digital keys with confidence.\",\n      \"https://s3-ap-southeast-1.amazonaws.com/binatir.dev/wallet-trezor-model-t.jpg\"\n    ));\n    store.productCount = store.productCount.add(1);\n\n    storeIdToProductIds[store.id].push(productCount.add(1));\n    productCount = products.push(\n      Product(productCount.add(1),\n      store.id,\n      10 ether,\n      15,\n      true,\n      \"Trezor One Black + Cryptosteel\",\n      \"Keep your coins double protected! An ultimate bundle for crypto-beginners and hodlers alike. Get the TREZOR One in black, in a convenient package with a damage-resistant vault for your recovery seed.\",\n      \"https://s3-ap-southeast-1.amazonaws.com/binatir.dev/wallet-trezor-one-cryptosteel.jpg\"\n    ));\n    store.productCount = store.productCount.add(1);\n  }\n\n  /** @dev Create a sample store on address(0)\n    */\n  function createSampleStore2() public onlyOwner {\n    address storeOwner = address(0);\n    uint256 storeId = storeCount.add(1);\n    storeCount = stores.push(\n      Store(\n        storeId,\n        storeOwner,\n        true,\n        \"Event Ticket Store\",\n        \"We sell event tickets!\",\n        \"https://s3-ap-southeast-1.amazonaws.com/binatir.dev/store-1.jpg\",\n        0));\n    storeOwnerToStoreId[storeOwner] = storeId;\n\n    Store storage store = stores[storeId.sub(1)];\n\n    storeIdToProductIds[store.id].push(productCount.add(1));\n    productCount = products.push(\n      Product(\n        productCount.add(1),\n        store.id,\n        10 ether,\n        0,\n        true,\n        \"EDCON Paris 17-18 Feb 2017\",\n        \"Ethereum event\",\n        \"https://s3-ap-southeast-1.amazonaws.com/binatir.dev/event-edcon.png\"));\n    store.productCount = store.productCount.add(1);\n\n    storeIdToProductIds[store.id].push(productCount.add(1));\n    productCount = products.push(\n      Product(\n        productCount.add(1),\n        store.id,\n        5 ether,\n        5,\n        true,\n        \"ETHIS Hong Kong 8 Sep 2018\",\n        \"Ethereum event\",\n        \"https://s3-ap-southeast-1.amazonaws.com/binatir.dev/event-ethis.png\"));\n    store.productCount = store.productCount.add(1);\n  }\n\n}",
  "sourcePath": "/Users/bichenkk/Desktop/ethstore/contracts/EthStoreSample.sol",
  "compiler": {
    "name": "solc",
    "version": "0.4.24+commit.e67f0147.Emscripten.clang"
  },
  "schemaVersion": "2.0.1",
  "updatedAt": "2018-08-29T09:03:17.357Z"
}