{
  "contractName": "EthStoreAdministrator",
  "abi": [
    {
      "constant": true,
      "inputs": [
        {
          "name": "",
          "type": "uint256"
        },
        {
          "name": "",
          "type": "uint256"
        }
      ],
      "name": "storeIdToProductIds",
      "outputs": [
        {
          "name": "",
          "type": "uint256"
        }
      ],
      "payable": false,
      "stateMutability": "view",
      "type": "function"
    },
    {
      "constant": true,
      "inputs": [
        {
          "name": "",
          "type": "address"
        }
      ],
      "name": "addressToBalance",
      "outputs": [
        {
          "name": "",
          "type": "uint256"
        }
      ],
      "payable": false,
      "stateMutability": "view",
      "type": "function"
    },
    {
      "constant": true,
      "inputs": [],
      "name": "getIdentity",
      "outputs": [
        {
          "name": "isAdministrator",
          "type": "bool"
        },
        {
          "name": "isStoreOwner",
          "type": "bool"
        }
      ],
      "payable": false,
      "stateMutability": "view",
      "type": "function"
    },
    {
      "constant": false,
      "inputs": [
        {
          "name": "_productId",
          "type": "uint256"
        }
      ],
      "name": "purchaseProduct",
      "outputs": [],
      "payable": true,
      "stateMutability": "payable",
      "type": "function"
    },
    {
      "constant": false,
      "inputs": [],
      "name": "unpause",
      "outputs": [],
      "payable": false,
      "stateMutability": "nonpayable",
      "type": "function"
    },
    {
      "constant": false,
      "inputs": [],
      "name": "createSampleStore2",
      "outputs": [],
      "payable": false,
      "stateMutability": "nonpayable",
      "type": "function"
    },
    {
      "constant": true,
      "inputs": [],
      "name": "paused",
      "outputs": [
        {
          "name": "",
          "type": "bool"
        }
      ],
      "payable": false,
      "stateMutability": "view",
      "type": "function"
    },
    {
      "constant": false,
      "inputs": [],
      "name": "withdrawBalance",
      "outputs": [],
      "payable": false,
      "stateMutability": "nonpayable",
      "type": "function"
    },
    {
      "constant": false,
      "inputs": [],
      "name": "renounceOwnership",
      "outputs": [],
      "payable": false,
      "stateMutability": "nonpayable",
      "type": "function"
    },
    {
      "constant": true,
      "inputs": [
        {
          "name": "",
          "type": "uint256"
        }
      ],
      "name": "products",
      "outputs": [
        {
          "name": "id",
          "type": "uint256"
        },
        {
          "name": "storeId",
          "type": "uint256"
        },
        {
          "name": "price",
          "type": "uint256"
        },
        {
          "name": "count",
          "type": "uint256"
        },
        {
          "name": "enabled",
          "type": "bool"
        },
        {
          "name": "name",
          "type": "string"
        },
        {
          "name": "description",
          "type": "string"
        },
        {
          "name": "imageUrl",
          "type": "string"
        }
      ],
      "payable": false,
      "stateMutability": "view",
      "type": "function"
    },
    {
      "constant": false,
      "inputs": [],
      "name": "pause",
      "outputs": [],
      "payable": false,
      "stateMutability": "nonpayable",
      "type": "function"
    },
    {
      "constant": true,
      "inputs": [],
      "name": "owner",
      "outputs": [
        {
          "name": "",
          "type": "address"
        }
      ],
      "payable": false,
      "stateMutability": "view",
      "type": "function"
    },
    {
      "constant": true,
      "inputs": [
        {
          "name": "",
          "type": "uint256"
        }
      ],
      "name": "transactions",
      "outputs": [
        {
          "name": "id",
          "type": "uint256"
        },
        {
          "name": "storeId",
          "type": "uint256"
        },
        {
          "name": "productId",
          "type": "uint256"
        },
        {
          "name": "price",
          "type": "uint256"
        },
        {
          "name": "buyer",
          "type": "address"
        }
      ],
      "payable": false,
      "stateMutability": "view",
      "type": "function"
    },
    {
      "constant": true,
      "inputs": [],
      "name": "storeCount",
      "outputs": [
        {
          "name": "",
          "type": "uint256"
        }
      ],
      "payable": false,
      "stateMutability": "view",
      "type": "function"
    },
    {
      "constant": true,
      "inputs": [
        {
          "name": "",
          "type": "address"
        }
      ],
      "name": "storeOwnerToStoreId",
      "outputs": [
        {
          "name": "",
          "type": "uint256"
        }
      ],
      "payable": false,
      "stateMutability": "view",
      "type": "function"
    },
    {
      "constant": true,
      "inputs": [],
      "name": "transactionCount",
      "outputs": [
        {
          "name": "",
          "type": "uint256"
        }
      ],
      "payable": false,
      "stateMutability": "view",
      "type": "function"
    },
    {
      "constant": false,
      "inputs": [],
      "name": "createSampleStore1",
      "outputs": [],
      "payable": false,
      "stateMutability": "nonpayable",
      "type": "function"
    },
    {
      "constant": true,
      "inputs": [],
      "name": "productCount",
      "outputs": [
        {
          "name": "",
          "type": "uint256"
        }
      ],
      "payable": false,
      "stateMutability": "view",
      "type": "function"
    },
    {
      "constant": true,
      "inputs": [
        {
          "name": "",
          "type": "uint256"
        }
      ],
      "name": "stores",
      "outputs": [
        {
          "name": "id",
          "type": "uint256"
        },
        {
          "name": "storeOwner",
          "type": "address"
        },
        {
          "name": "enabled",
          "type": "bool"
        },
        {
          "name": "name",
          "type": "string"
        },
        {
          "name": "description",
          "type": "string"
        },
        {
          "name": "imageUrl",
          "type": "string"
        },
        {
          "name": "productCount",
          "type": "uint256"
        }
      ],
      "payable": false,
      "stateMutability": "view",
      "type": "function"
    },
    {
      "constant": false,
      "inputs": [
        {
          "name": "_newOwner",
          "type": "address"
        }
      ],
      "name": "transferOwnership",
      "outputs": [],
      "payable": false,
      "stateMutability": "nonpayable",
      "type": "function"
    },
    {
      "anonymous": false,
      "inputs": [
        {
          "indexed": false,
          "name": "id",
          "type": "uint256"
        },
        {
          "indexed": false,
          "name": "storeOwner",
          "type": "address"
        }
      ],
      "name": "NewStore",
      "type": "event"
    },
    {
      "anonymous": false,
      "inputs": [
        {
          "indexed": false,
          "name": "id",
          "type": "uint256"
        },
        {
          "indexed": false,
          "name": "storeId",
          "type": "uint256"
        }
      ],
      "name": "NewProduct",
      "type": "event"
    },
    {
      "anonymous": false,
      "inputs": [
        {
          "indexed": false,
          "name": "buyer",
          "type": "address"
        },
        {
          "indexed": false,
          "name": "productId",
          "type": "uint256"
        }
      ],
      "name": "NewTransaction",
      "type": "event"
    },
    {
      "anonymous": false,
      "inputs": [],
      "name": "Pause",
      "type": "event"
    },
    {
      "anonymous": false,
      "inputs": [],
      "name": "Unpause",
      "type": "event"
    },
    {
      "anonymous": false,
      "inputs": [
        {
          "indexed": true,
          "name": "previousOwner",
          "type": "address"
        }
      ],
      "name": "OwnershipRenounced",
      "type": "event"
    },
    {
      "anonymous": false,
      "inputs": [
        {
          "indexed": true,
          "name": "previousOwner",
          "type": "address"
        },
        {
          "indexed": true,
          "name": "newOwner",
          "type": "address"
        }
      ],
      "name": "OwnershipTransferred",
      "type": "event"
    },
    {
      "constant": false,
      "inputs": [
        {
          "name": "_storeOwner",
          "type": "address"
        }
      ],
      "name": "createStore",
      "outputs": [],
      "payable": false,
      "stateMutability": "nonpayable",
      "type": "function"
    },
    {
      "constant": false,
      "inputs": [
        {
          "name": "_storeId",
          "type": "uint256"
        },
        {
          "name": "_enabled",
          "type": "bool"
        }
      ],
      "name": "enableStore",
      "outputs": [],
      "payable": false,
      "stateMutability": "nonpayable",
      "type": "function"
    },
    {
      "constant": false,
      "inputs": [
        {
          "name": "_productId",
          "type": "uint256"
        },
        {
          "name": "_enabled",
          "type": "bool"
        }
      ],
      "name": "enableProduct",
      "outputs": [],
      "payable": false,
      "stateMutability": "nonpayable",
      "type": "function"
    }
  ],
  "bytecode": "0x608060405260008060146101000a81548160ff021916908315150217905550600060075560006008556000600955336000806101000a81548173ffffffffffffffffffffffffffffffffffffffff021916908373ffffffffffffffffffffffffffffffffffffffff1602179055506139848061007c6000396000f300608060405260043610610133576000357c0100000000000000000000000000000000000000000000000000000000900463ffffffff168063088e0e7114610138578063155dedf914610183578063237c980a146101bc57806336afc6fa1461021357806338e76a031461024d5780633f4ba83a1461026d5780635182d9f6146102845780635c975abb1461029b5780635fd8c710146102ca57806369aac3d2146102e1578063715018a61461031a5780637acc0b20146103315780638456cb59146104d65780638da5cb5b146104ed5780639ace38c214610544578063a1b141d4146105cd578063b17489f5146105f8578063b77bf6001461064f578063df345eec1461067a578063e0f6ef8714610691578063e8a59cd8146106bc578063f2fde38b14610886578063f6b08cc5146108c9575b600080fd5b34801561014457600080fd5b5061016d600480360381019080803590602001909291908035906020019092919050505061090c565b6040518082815260200191505060405180910390f35b34801561018f57600080fd5b506101ba6004803603810190808035906020019092919080351515906020019092919050505061093c565b005b3480156101c857600080fd5b506101fd600480360381019080803573ffffffffffffffffffffffffffffffffffffffff169060200190929190505050610a09565b6040518082815260200191505060405180910390f35b34801561021f57600080fd5b50610228610a21565b6040518083151515158152602001821515151581526020019250505060405180910390f35b61026b60048036038101908080359060200190929190505050610b1c565b005b34801561027957600080fd5b50610282610f36565b005b34801561029057600080fd5b50610299610ff4565b005b3480156102a757600080fd5b506102b0611832565b604051808215151515815260200191505060405180910390f35b3480156102d657600080fd5b506102df611845565b005b3480156102ed57600080fd5b5061031860048036038101908080359060200190929190803515159060200190929190505050611985565b005b34801561032657600080fd5b5061032f611a52565b005b34801561033d57600080fd5b5061035c60048036038101908080359060200190929190505050611b54565b6040518089815260200188815260200187815260200186815260200185151515158152602001806020018060200180602001848103845287818151815260200191508051906020019080838360005b838110156103c65780820151818401526020810190506103ab565b50505050905090810190601f1680156103f35780820380516001836020036101000a031916815260200191505b50848103835286818151815260200191508051906020019080838360005b8381101561042c578082015181840152602081019050610411565b50505050905090810190601f1680156104595780820380516001836020036101000a031916815260200191505b50848103825285818151815260200191508051906020019080838360005b83811015610492578082015181840152602081019050610477565b50505050905090810190601f1680156104bf5780820380516001836020036101000a031916815260200191505b509b50505050505050505050505060405180910390f35b3480156104e257600080fd5b506104eb611d80565b005b3480156104f957600080fd5b50610502611e40565b604051808273ffffffffffffffffffffffffffffffffffffffff1673ffffffffffffffffffffffffffffffffffffffff16815260200191505060405180910390f35b34801561055057600080fd5b5061056f60048036038101908080359060200190929190505050611e65565b604051808681526020018581526020018481526020018381526020018273ffffffffffffffffffffffffffffffffffffffff1673ffffffffffffffffffffffffffffffffffffffff1681526020019550505050505060405180910390f35b3480156105d957600080fd5b506105e2611eca565b6040518082815260200191505060405180910390f35b34801561060457600080fd5b50610639600480360381019080803573ffffffffffffffffffffffffffffffffffffffff169060200190929190505050611ed0565b6040518082815260200191505060405180910390f35b34801561065b57600080fd5b50610664611ee8565b6040518082815260200191505060405180910390f35b34801561068657600080fd5b5061068f611eee565b005b34801561069d57600080fd5b506106a6612ea7565b6040518082815260200191505060405180910390f35b3480156106c857600080fd5b506106e760048036038101908080359060200190929190505050612ead565b604051808881526020018773ffffffffffffffffffffffffffffffffffffffff1673ffffffffffffffffffffffffffffffffffffffff16815260200186151515158152602001806020018060200180602001858152602001848103845288818151815260200191508051906020019080838360005b8381101561077757808201518184015260208101905061075c565b50505050905090810190601f1680156107a45780820380516001836020036101000a031916815260200191505b50848103835287818151815260200191508051906020019080838360005b838110156107dd5780820151818401526020810190506107c2565b50505050905090810190601f16801561080a5780820380516001836020036101000a031916815260200191505b50848103825286818151815260200191508051906020019080838360005b83811015610843578082015181840152602081019050610828565b50505050905090810190601f1680156108705780820380516001836020036101000a031916815260200191505b509a505050505050505050505060405180910390f35b34801561089257600080fd5b506108c7600480360381019080803573ffffffffffffffffffffffffffffffffffffffff1690602001909291905050506130f3565b005b3480156108d557600080fd5b5061090a600480360381019080803573ffffffffffffffffffffffffffffffffffffffff16906020019092919050505061315a565b005b60036020528160005260406000208181548110151561092757fe5b90600052602060002001600091509150505481565b60008060009054906101000a900473ffffffffffffffffffffffffffffffffffffffff1673ffffffffffffffffffffffffffffffffffffffff163373ffffffffffffffffffffffffffffffffffffffff1614151561099957600080fd5b6000831180156109ab57506008548311155b15156109b657600080fd5b60056109cc60018561345590919063ffffffff16565b8154811015156109d857fe5b90600052602060002090600802019050818160040160006101000a81548160ff021916908315150217905550505050565b60016020528060005260406000206000915090505481565b6000806000600260003373ffffffffffffffffffffffffffffffffffffffff1673ffffffffffffffffffffffffffffffffffffffff1681526020019081526020016000205490506000809054906101000a900473ffffffffffffffffffffffffffffffffffffffff1673ffffffffffffffffffffffffffffffffffffffff163373ffffffffffffffffffffffffffffffffffffffff1614600082118015610aca57506007548211155b8015610b1357506004610ae760018461345590919063ffffffff16565b815481101515610af357fe5b906000526020600020906006020160010160149054906101000a900460ff165b92509250509091565b60008060008060149054906101000a900460ff16151515610b3c57600080fd5b600084118015610b4e57506008548411155b1515610b5957600080fd5b600a60009054906101000a900460ff16151515610b7557600080fd5b6001600a60006101000a81548160ff0219169083151502179055506005610ba660018661345590919063ffffffff16565b815481101515610bb257fe5b906000526020600020906008020192508260040160009054906101000a900460ff168015610be4575082600201543410155b8015610bf4575060008360030154115b1515610bff57600080fd5b610c176001846003015461345590919063ffffffff16565b83600301819055506004610c396001856001015461345590919063ffffffff16565b815481101515610c4557fe5b90600052602060002090600602019150610ccf8360020154600160008560010160009054906101000a900473ffffffffffffffffffffffffffffffffffffffff1673ffffffffffffffffffffffffffffffffffffffff1673ffffffffffffffffffffffffffffffffffffffff1681526020019081526020016000205461346e90919063ffffffff16565b600160008460010160009054906101000a900473ffffffffffffffffffffffffffffffffffffffff1673ffffffffffffffffffffffffffffffffffffffff1673ffffffffffffffffffffffffffffffffffffffff16815260200190815260200160002081905550610d4c600160095461346e90919063ffffffff16565b9050600660a0604051908101604052808381526020018460000154815260200185600001548152602001856002015481526020013373ffffffffffffffffffffffffffffffffffffffff16815250908060018154018082558091505090600182039060005260206000209060050201600090919290919091506000820151816000015560208201518160010155604082015181600201556060820151816003015560808201518160040160006101000a81548173ffffffffffffffffffffffffffffffffffffffff021916908373ffffffffffffffffffffffffffffffffffffffff16021790555050506009819055507fb1445bddd65a1181889e05face87a43c0fe440b363a232b44831c175c7309f58338460000154604051808373ffffffffffffffffffffffffffffffffffffffff1673ffffffffffffffffffffffffffffffffffffffff1681526020018281526020019250505060405180910390a18260020154341115610f15573373ffffffffffffffffffffffffffffffffffffffff166108fc610ee885600201543461345590919063ffffffff16565b9081150290604051600060405180830381858888f19350505050158015610f13573d6000803e3d6000fd5b505b6000600a60006101000a81548160ff02191690831515021790555050505050565b6000809054906101000a900473ffffffffffffffffffffffffffffffffffffffff1673ffffffffffffffffffffffffffffffffffffffff163373ffffffffffffffffffffffffffffffffffffffff16141515610f9157600080fd5b600060149054906101000a900460ff161515610fac57600080fd5b60008060146101000a81548160ff0219169083151502179055507f7805862f689e2f13df9f062ff482ad3ad112aca9e0847911ed832e158c525b3360405160405180910390a1565b60008060008060009054906101000a900473ffffffffffffffffffffffffffffffffffffffff1673ffffffffffffffffffffffffffffffffffffffff163373ffffffffffffffffffffffffffffffffffffffff1614151561105457600080fd5b6000925061106e600160075461346e90919063ffffffff16565b9150600460e0604051908101604052808481526020018573ffffffffffffffffffffffffffffffffffffffff1681526020016001151581526020016040805190810160405280601281526020017f4576656e74205469636b65742053746f7265000000000000000000000000000081525081526020016040805190810160405280601681526020017f57652073656c6c206576656e74207469636b65747321000000000000000000008152508152602001606060405190810160405280603f81526020017f68747470733a2f2f73332d61702d736f757468656173742d312e616d617a6f6e81526020017f6177732e636f6d2f62696e617469722e6465762f73746f72652d312e6a70670081525081526020016000815250908060018154018082558091505090600182039060005260206000209060060201600090919290919091506000820151816000015560208201518160010160006101000a81548173ffffffffffffffffffffffffffffffffffffffff021916908373ffffffffffffffffffffffffffffffffffffffff16021790555060408201518160010160146101000a81548160ff021916908315150217905550606082015181600201908051906020019061123e929190613584565b50608082015181600301908051906020019061125b929190613584565b5060a0820151816004019080519060200190611278929190613584565b5060c08201518160050155505060078190555081600260008573ffffffffffffffffffffffffffffffffffffffff1673ffffffffffffffffffffffffffffffffffffffff1681526020019081526020016000208190555060046112e560018461345590919063ffffffff16565b8154811015156112f157fe5b90600052602060002090600602019050600360008260000154815260200190815260200160002061132e600160085461346e90919063ffffffff16565b908060018154018082558091505090600182039060005260206000200160009091929091909150555060056101006040519081016040528061137c600160085461346e90919063ffffffff16565b815260200183600001548152602001678ac7230489e800008152602001600081526020016001151581526020016040805190810160405280601a81526020017f4544434f4e2050617269732031372d313820466562203230313700000000000081525081526020016040805190810160405280600e81526020017f457468657265756d206576656e740000000000000000000000000000000000008152508152602001608060405190810160405280604381526020017f68747470733a2f2f73332d61702d736f757468656173742d312e616d617a6f6e81526020017f6177732e636f6d2f62696e617469722e6465762f6576656e742d6564636f6e2e81526020017f706e670000000000000000000000000000000000000000000000000000000000815250815250908060018154018082558091505090600182039060005260206000209060080201600090919290919091506000820151816000015560208201518160010155604082015181600201556060820151816003015560808201518160040160006101000a81548160ff02191690831515021790555060a0820151816005019080519060200190611534929190613584565b5060c0820151816006019080519060200190611551929190613584565b5060e082015181600701908051906020019061156e929190613584565b50505060088190555061158f6001826005015461346e90919063ffffffff16565b816005018190555060036000826000015481526020019081526020016000206115c4600160085461346e90919063ffffffff16565b9080600181540180825580915050906001820390600052602060002001600090919290919091505550600561010060405190810160405280611612600160085461346e90919063ffffffff16565b815260200183600001548152602001674563918244f400008152602001600581526020016001151581526020016040805190810160405280601a81526020017f455448495320486f6e67204b6f6e67203820536570203230313800000000000081525081526020016040805190810160405280600e81526020017f457468657265756d206576656e740000000000000000000000000000000000008152508152602001608060405190810160405280604381526020017f68747470733a2f2f73332d61702d736f757468656173742d312e616d617a6f6e81526020017f6177732e636f6d2f62696e617469722e6465762f6576656e742d65746869732e81526020017f706e670000000000000000000000000000000000000000000000000000000000815250815250908060018154018082558091505090600182039060005260206000209060080201600090919290919091506000820151816000015560208201518160010155604082015181600201556060820151816003015560808201518160040160006101000a81548160ff02191690831515021790555060a08201518160050190805190602001906117ca929190613584565b5060c08201518160060190805190602001906117e7929190613584565b5060e0820151816007019080519060200190611804929190613584565b5050506008819055506118256001826005015461346e90919063ffffffff16565b8160050181905550505050565b600060149054906101000a900460ff1681565b60008060149054906101000a900460ff1615151561186257600080fd5b600a60009054906101000a900460ff1615151561187e57600080fd5b6001600a60006101000a81548160ff021916908315150217905550600160003373ffffffffffffffffffffffffffffffffffffffff1673ffffffffffffffffffffffffffffffffffffffff1681526020019081526020016000205490506000600160003373ffffffffffffffffffffffffffffffffffffffff1673ffffffffffffffffffffffffffffffffffffffff168152602001908152602001600020819055503373ffffffffffffffffffffffffffffffffffffffff166108fc829081150290604051600060405180830381858888f19350505050158015611966573d6000803e3d6000fd5b506000600a60006101000a81548160ff02191690831515021790555050565b60008060009054906101000a900473ffffffffffffffffffffffffffffffffffffffff1673ffffffffffffffffffffffffffffffffffffffff163373ffffffffffffffffffffffffffffffffffffffff161415156119e257600080fd5b6000831180156119f457506007548311155b15156119ff57600080fd5b6004611a1560018561345590919063ffffffff16565b815481101515611a2157fe5b90600052602060002090600602019050818160010160146101000a81548160ff021916908315150217905550505050565b6000809054906101000a900473ffffffffffffffffffffffffffffffffffffffff1673ffffffffffffffffffffffffffffffffffffffff163373ffffffffffffffffffffffffffffffffffffffff16141515611aad57600080fd5b6000809054906101000a900473ffffffffffffffffffffffffffffffffffffffff1673ffffffffffffffffffffffffffffffffffffffff167ff8df31144d9c2f0f6b59d69b8b98abd5459d07f2742c4df920b25aae33c6482060405160405180910390a260008060006101000a81548173ffffffffffffffffffffffffffffffffffffffff021916908373ffffffffffffffffffffffffffffffffffffffff160217905550565b600581815481101515611b6357fe5b90600052602060002090600802016000915090508060000154908060010154908060020154908060030154908060040160009054906101000a900460ff1690806005018054600181600116156101000203166002900480601f016020809104026020016040519081016040528092919081815260200182805460018160011615610100020316600290048015611c3a5780601f10611c0f57610100808354040283529160200191611c3a565b820191906000526020600020905b815481529060010190602001808311611c1d57829003601f168201915b505050505090806006018054600181600116156101000203166002900480601f016020809104026020016040519081016040528092919081815260200182805460018160011615610100020316600290048015611cd85780601f10611cad57610100808354040283529160200191611cd8565b820191906000526020600020905b815481529060010190602001808311611cbb57829003601f168201915b505050505090806007018054600181600116156101000203166002900480601f016020809104026020016040519081016040528092919081815260200182805460018160011615610100020316600290048015611d765780601f10611d4b57610100808354040283529160200191611d76565b820191906000526020600020905b815481529060010190602001808311611d5957829003601f168201915b5050505050905088565b6000809054906101000a900473ffffffffffffffffffffffffffffffffffffffff1673ffffffffffffffffffffffffffffffffffffffff163373ffffffffffffffffffffffffffffffffffffffff16141515611ddb57600080fd5b600060149054906101000a900460ff16151515611df757600080fd5b6001600060146101000a81548160ff0219169083151502179055507f6985a02210a168e66602d3235cb6db0e70f92b3ba4d376a33c0f3d9434bff62560405160405180910390a1565b6000809054906101000a900473ffffffffffffffffffffffffffffffffffffffff1681565b600681815481101515611e7457fe5b90600052602060002090600502016000915090508060000154908060010154908060020154908060030154908060040160009054906101000a900473ffffffffffffffffffffffffffffffffffffffff16905085565b60075481565b60026020528060005260406000206000915090505481565b60095481565b60008060008060009054906101000a900473ffffffffffffffffffffffffffffffffffffffff1673ffffffffffffffffffffffffffffffffffffffff163373ffffffffffffffffffffffffffffffffffffffff16141515611f4e57600080fd5b339250611f67600160075461346e90919063ffffffff16565b9150600460e0604051908101604052808481526020018573ffffffffffffffffffffffffffffffffffffffff1681526020016001151581526020016040805190810160405280601181526020017f436f6c642057616c6c65742053746f726500000000000000000000000000000081525081526020016040805190810160405280601581526020017f57652073656c6c20636f6c642077616c6c6574732100000000000000000000008152508152602001606060405190810160405280603f81526020017f68747470733a2f2f73332d61702d736f757468656173742d312e616d617a6f6e81526020017f6177732e636f6d2f62696e617469722e6465762f73746f72652d302e706e670081525081526020016000815250908060018154018082558091505090600182039060005260206000209060060201600090919290919091506000820151816000015560208201518160010160006101000a81548173ffffffffffffffffffffffffffffffffffffffff021916908373ffffffffffffffffffffffffffffffffffffffff16021790555060408201518160010160146101000a81548160ff0219169083151502179055506060820151816002019080519060200190612137929190613584565b506080820151816003019080519060200190612154929190613584565b5060a0820151816004019080519060200190612171929190613584565b5060c08201518160050155505060078190555081600260008573ffffffffffffffffffffffffffffffffffffffff1673ffffffffffffffffffffffffffffffffffffffff1681526020019081526020016000208190555060046121de60018461345590919063ffffffff16565b8154811015156121ea57fe5b906000526020600020906006020190506003600082600001548152602001908152602001600020612227600160085461346e90919063ffffffff16565b9080600181540180825580915050906001820390600052602060002001600090919290919091505550600561010060405190810160405280612275600160085461346e90919063ffffffff16565b815260200183600001548152602001671bc16d674ec800008152602001606481526020016001151581526020016040805190810160405280600d81526020017f4c6564676572204e616e6f205300000000000000000000000000000000000000815250815260200160e06040519081016040528060a981526020016138b060a991398152602001608060405190810160405280604a81526020017f68747470733a2f2f73332d61702d736f757468656173742d312e616d617a6f6e81526020017f6177732e636f6d2f62696e617469722e6465762f77616c6c65742d6c6564676581526020017f722d6e616e6f2e706e6700000000000000000000000000000000000000000000815250815250908060018154018082558091505090600182039060005260206000209060080201600090919290919091506000820151816000015560208201518160010155604082015181600201556060820151816003015560808201518160040160006101000a81548160ff02191690831515021790555060a0820151816005019080519060200190612411929190613584565b5060c082015181600601908051906020019061242e929190613584565b5060e082015181600701908051906020019061244b929190613584565b50505060088190555061246c6001826005015461346e90919063ffffffff16565b816005018190555060036000826000015481526020019081526020016000206124a1600160085461346e90919063ffffffff16565b90806001815401808255809150509060018203906000526020600020016000909192909190915055506005610100604051908101604052806124ef600160085461346e90919063ffffffff16565b815260200183600001548152602001674563918244f400008152602001600081526020016001151581526020016040805190810160405280600b81526020017f4c656467657220426c756500000000000000000000000000000000000000000081525081526020016101206040519081016040528060e2815260200161370760e291398152602001608060405190810160405280604a81526020017f68747470733a2f2f73332d61702d736f757468656173742d312e616d617a6f6e81526020017f6177732e636f6d2f62696e617469722e6465762f77616c6c65742d6c6564676581526020017f722d626c75652e706e6700000000000000000000000000000000000000000000815250815250908060018154018082558091505090600182039060005260206000209060080201600090919290919091506000820151816000015560208201518160010155604082015181600201556060820151816003015560808201518160040160006101000a81548160ff02191690831515021790555060a082015181600501908051906020019061268c929190613584565b5060c08201518160060190805190602001906126a9929190613584565b5060e08201518160070190805190602001906126c6929190613584565b5050506008819055506126e76001826005015461346e90919063ffffffff16565b8160050181905550600360008260000154815260200190815260200160002061271c600160085461346e90919063ffffffff16565b908060018154018082558091505090600182039060005260206000200160009091929091909150555060056101006040519081016040528061276a600160085461346e90919063ffffffff16565b815260200183600001548152602001670de0b6b3a76400008152602001601481526020016001151581526020016040805190810160405280601081526020017f5472657a6f72204f6e65205768697465000000000000000000000000000000008152508152602001606060405190810160405280603f81526020017f546865206d6f737420747275737465642068617264776172652077616c6c657481526020017f20696e2074686520776f726c642e2047657420796f75727320746f64617921008152508152602001608060405190810160405280604981526020017f68747470733a2f2f73332d61702d736f757468656173742d312e616d617a6f6e81526020017f6177732e636f6d2f62696e617469722e6465762f77616c6c65742d7472657a6f81526020017f722d6f6e652e6a70670000000000000000000000000000000000000000000000815250815250908060018154018082558091505090600182039060005260206000209060080201600090919290919091506000820151816000015560208201518160010155604082015181600201556060820151816003015560808201518160040160006101000a81548160ff02191690831515021790555060a0820151816005019080519060200190612949929190613584565b5060c0820151816006019080519060200190612966929190613584565b5060e0820151816007019080519060200190612983929190613584565b5050506008819055506129a46001826005015461346e90919063ffffffff16565b816005018190555060036000826000015481526020019081526020016000206129d9600160085461346e90919063ffffffff16565b9080600181540180825580915050906001820390600052602060002001600090919290919091505550600561010060405190810160405280612a27600160085461346e90919063ffffffff16565b8152602001836000015481526020016729a2241af62c00008152602001600a81526020016001151581526020016040805190810160405280600e81526020017f5472657a6f72204d6f64656c205400000000000000000000000000000000000081525081526020016101006040519081016040528060dd815260200161362a60dd91398152602001608060405190810160405280604d81526020017f68747470733a2f2f73332d61702d736f757468656173742d312e616d617a6f6e81526020017f6177732e636f6d2f62696e617469722e6465762f77616c6c65742d7472657a6f81526020017f722d6d6f64656c2d742e6a706700000000000000000000000000000000000000815250815250908060018154018082558091505090600182039060005260206000209060080201600090919290919091506000820151816000015560208201518160010155604082015181600201556060820151816003015560808201518160040160006101000a81548160ff02191690831515021790555060a0820151816005019080519060200190612bc4929190613584565b5060c0820151816006019080519060200190612be1929190613584565b5060e0820151816007019080519060200190612bfe929190613584565b505050600881905550612c1f6001826005015461346e90919063ffffffff16565b81600501819055506003600082600001548152602001908152602001600020612c54600160085461346e90919063ffffffff16565b9080600181540180825580915050906001820390600052602060002001600090919290919091505550600561010060405190810160405280612ca2600160085461346e90919063ffffffff16565b815260200183600001548152602001678ac7230489e800008152602001600f81526020016001151581526020016040805190810160405280601e81526020017f5472657a6f72204f6e6520426c61636b202b2043727970746f737465656c000081525081526020016101006040519081016040528060c781526020016137e960c791398152602001608060405190810160405280605581526020017f68747470733a2f2f73332d61702d736f757468656173742d312e616d617a6f6e81526020017f6177732e636f6d2f62696e617469722e6465762f77616c6c65742d7472657a6f81526020017f722d6f6e652d63727970746f737465656c2e6a70670000000000000000000000815250815250908060018154018082558091505090600182039060005260206000209060080201600090919290919091506000820151816000015560208201518160010155604082015181600201556060820151816003015560808201518160040160006101000a81548160ff02191690831515021790555060a0820151816005019080519060200190612e3f929190613584565b5060c0820151816006019080519060200190612e5c929190613584565b5060e0820151816007019080519060200190612e79929190613584565b505050600881905550612e9a6001826005015461346e90919063ffffffff16565b8160050181905550505050565b60085481565b600481815481101515612ebc57fe5b90600052602060002090600602016000915090508060000154908060010160009054906101000a900473ffffffffffffffffffffffffffffffffffffffff16908060010160149054906101000a900460ff1690806002018054600181600116156101000203166002900480601f016020809104026020016040519081016040528092919081815260200182805460018160011615610100020316600290048015612fa75780601f10612f7c57610100808354040283529160200191612fa7565b820191906000526020600020905b815481529060010190602001808311612f8a57829003601f168201915b505050505090806003018054600181600116156101000203166002900480601f0160208091040260200160405190810160405280929190818152602001828054600181600116156101000203166002900480156130455780601f1061301a57610100808354040283529160200191613045565b820191906000526020600020905b81548152906001019060200180831161302857829003601f168201915b505050505090806004018054600181600116156101000203166002900480601f0160208091040260200160405190810160405280929190818152602001828054600181600116156101000203166002900480156130e35780601f106130b8576101008083540402835291602001916130e3565b820191906000526020600020905b8154815290600101906020018083116130c657829003601f168201915b5050505050908060050154905087565b6000809054906101000a900473ffffffffffffffffffffffffffffffffffffffff1673ffffffffffffffffffffffffffffffffffffffff163373ffffffffffffffffffffffffffffffffffffffff1614151561314e57600080fd5b6131578161348a565b50565b60008060009054906101000a900473ffffffffffffffffffffffffffffffffffffffff1673ffffffffffffffffffffffffffffffffffffffff163373ffffffffffffffffffffffffffffffffffffffff161415156131b757600080fd5b6000600260008473ffffffffffffffffffffffffffffffffffffffff1673ffffffffffffffffffffffffffffffffffffffff1681526020019081526020016000205414151561320557600080fd5b61321b600160075461346e90919063ffffffff16565b9050600460e0604051908101604052808381526020018473ffffffffffffffffffffffffffffffffffffffff1681526020016001151581526020016020604051908101604052806000815250815260200160206040519081016040528060008152508152602001602060405190810160405280600081525081526020016000815250908060018154018082558091505090600182039060005260206000209060060201600090919290919091506000820151816000015560208201518160010160006101000a81548173ffffffffffffffffffffffffffffffffffffffff021916908373ffffffffffffffffffffffffffffffffffffffff16021790555060408201518160010160146101000a81548160ff0219169083151502179055506060820151816002019080519060200190613355929190613584565b506080820151816003019080519060200190613372929190613584565b5060a082015181600401908051906020019061338f929190613584565b5060c08201518160050155505060078190555080600260008473ffffffffffffffffffffffffffffffffffffffff1673ffffffffffffffffffffffffffffffffffffffff168152602001908152602001600020819055507fe6dacdb80468cc5a1f6a468c1c7dffaf8adf2888b4c8d588b09937dd22b54b658183604051808381526020018273ffffffffffffffffffffffffffffffffffffffff1673ffffffffffffffffffffffffffffffffffffffff1681526020019250505060405180910390a15050565b600082821115151561346357fe5b818303905092915050565b6000818301905082811015151561348157fe5b80905092915050565b600073ffffffffffffffffffffffffffffffffffffffff168173ffffffffffffffffffffffffffffffffffffffff16141515156134c657600080fd5b8073ffffffffffffffffffffffffffffffffffffffff166000809054906101000a900473ffffffffffffffffffffffffffffffffffffffff1673ffffffffffffffffffffffffffffffffffffffff167f8be0079c531659141344cd1fd0a4f28419497f9722a3daafe3b4186f6b6457e060405160405180910390a3806000806101000a81548173ffffffffffffffffffffffffffffffffffffffff021916908373ffffffffffffffffffffffffffffffffffffffff16021790555050565b828054600181600116156101000203166002900490600052602060002090601f016020900481019282601f106135c557805160ff19168380011785556135f3565b828001600101855582156135f3579182015b828111156135f25782518255916020019190600101906135d7565b5b5090506136009190613604565b5090565b61362691905b8082111561362257600081600090555060010161360a565b5090565b905600546865205472657a6f72204d6f64656c205420697320746865206e6578742d67656e65726174696f6e2063727970746f63757272656e63792068617264776172652077616c6c65742c2064657369676e656420746f20626520796f757220756e6976657273616c207661756c7420666f7220616c6c206f6620796f7572206469676974616c206173736574732e2053746f726520616e6420656e637279707420796f757220636f696e732c2070617373776f72647320616e64206f74686572206469676974616c206b657973207769746820636f6e666964656e63652e4c656467657220426c75652069732061207072656d69756d2068617264776172652077616c6c6574207769746820616e20616476616e636564207573657220657870657269656e6365207468616e6b7320746f2061206c6172676520746f75636873637265656e20696e746572666163652e204974206973206275696c742061726f756e6420612053656375726520456c656d656e7420616e6420696e636c7564657320616c6c2074686520736563757269747920666561747572657320796f75e2809964206578706563742066726f6d2061204c6564676572206465766963652e4b65657020796f757220636f696e7320646f75626c652070726f7465637465642120416e20756c74696d6174652062756e646c6520666f722063727970746f2d626567696e6e65727320616e6420686f646c65727320616c696b652e2047657420746865205452455a4f52204f6e6520696e20626c61636b2c20696e206120636f6e76656e69656e74207061636b616765207769746820612064616d6167652d726573697374616e74207661756c7420666f7220796f7572207265636f7665727920736565642e50726f7465637420796f75722063727970746f20617373657473207769746820746865206d6f737420706f70756c6172206d756c746963757272656e63792068617264776172652077616c6c657420696e20746865206d61726b65742e20546865204c6564676572204e616e6f2053206973206275696c742061726f756e6420612073656375726520636869702c20656e737572696e67206f7074696d616c2073656375726974792ea165627a7a723058205d50c5cd0db131e172cbaaf369352a1eb16d4420d01b73a7ce582938c6cea2c50029",
  "source": "pragma solidity ^0.4.23;\n\nimport \"./EthStoreSample.sol\";\nimport \"openzeppelin-solidity/contracts/math/SafeMath.sol\";\n\ncontract EthStoreAdministrator is EthStoreSample {\n\n  using SafeMath for uint256;\n\n  /** @dev Create a new store.\n    * @param _storeOwner The address of the store owner.\n    */\n  function createStore(address _storeOwner) public onlyOwner {\n    require(storeOwnerToStoreId[_storeOwner] == 0);\n    // create a store for the store owner\n    uint256 storeId = storeCount.add(1);\n    storeCount = stores.push(Store(storeId, _storeOwner, true, \"\", \"\", \"\", 0));\n    storeOwnerToStoreId[_storeOwner] = storeId;\n    emit NewStore(storeId, _storeOwner);\n  }\n\n  /** @dev Enable / disable a store.\n    * @param _storeId The id of the store.\n    * @param _enabled The flag of enabled.\n    */\n  function enableStore(uint256 _storeId, bool _enabled) public onlyOwner {\n    require(_storeId > 0 && _storeId <= storeCount);\n    Store storage store = stores[_storeId.sub(1)];\n    store.enabled = _enabled;\n  }\n\n  /** @dev Enable / disable a product.\n    * @param _productId The id of the product.\n    * @param _enabled The flag of enabled.\n    */\n  function enableProduct(uint256 _productId, bool _enabled) public onlyOwner {\n    require(_productId > 0 && _productId <= productCount);\n    Product storage product = products[_productId.sub(1)];\n    product.enabled = _enabled;\n  }\n\n}",
  "sourcePath": "/Users/bichenkk/Desktop/ethstore/contracts/EthStoreAdministrator.sol",
  "compiler": {
    "name": "solc",
    "version": "0.4.24+commit.e67f0147.Emscripten.clang"
  },
  "schemaVersion": "2.0.1",
  "updatedAt": "2018-08-29T09:03:17.326Z"
}